{
  "contractName": "Tunnel",
  "abi": [
    {
      "inputs": [
        {
          "internalType": "address",
          "name": "wormhole_",
          "type": "address"
        }
      ],
      "stateMutability": "nonpayable",
      "type": "constructor"
    },
    {
      "anonymous": false,
      "inputs": [
        {
          "indexed": false,
          "internalType": "address",
          "name": "assetId",
          "type": "address"
        },
        {
          "indexed": false,
          "internalType": "uint256",
          "name": "amount",
          "type": "uint256"
        },
        {
          "indexed": false,
          "internalType": "address",
          "name": "evmWallet",
          "type": "address"
        },
        {
          "indexed": false,
          "internalType": "bytes32",
          "name": "algoWallet",
          "type": "bytes32"
        },
        {
          "indexed": false,
          "internalType": "uint256",
          "name": "timestamp",
          "type": "uint256"
        }
      ],
      "name": "AssetLocked",
      "type": "event"
    },
    {
      "anonymous": false,
      "inputs": [
        {
          "indexed": false,
          "internalType": "address",
          "name": "assetId",
          "type": "address"
        },
        {
          "indexed": false,
          "internalType": "uint256",
          "name": "amount",
          "type": "uint256"
        },
        {
          "indexed": false,
          "internalType": "bytes32",
          "name": "algoWallet",
          "type": "bytes32"
        },
        {
          "indexed": false,
          "internalType": "address",
          "name": "evmWallet",
          "type": "address"
        },
        {
          "indexed": false,
          "internalType": "uint256",
          "name": "timestamp",
          "type": "uint256"
        }
      ],
      "name": "AssetReleased",
      "type": "event"
    },
    {
      "anonymous": false,
      "inputs": [
        {
          "indexed": false,
          "internalType": "address",
          "name": "evmWallet",
          "type": "address"
        },
        {
          "indexed": false,
          "internalType": "bytes32",
          "name": "algoWallet",
          "type": "bytes32"
        }
      ],
      "name": "WalletCreated",
      "type": "event"
    },
    {
      "stateMutability": "payable",
      "type": "receive",
      "payable": true
    },
    {
      "inputs": [
        {
          "internalType": "bytes32",
          "name": "algoWallet",
          "type": "bytes32"
        }
      ],
      "name": "createWallet",
      "outputs": [],
      "stateMutability": "nonpayable",
      "type": "function"
    },
    {
      "inputs": [],
      "name": "messageFee",
      "outputs": [
        {
          "internalType": "uint256",
          "name": "",
          "type": "uint256"
        }
      ],
      "stateMutability": "view",
      "type": "function",
      "constant": true
    },
    {
      "inputs": [
        {
          "internalType": "address",
          "name": "assetId",
          "type": "address"
        },
        {
          "internalType": "uint256",
          "name": "amount",
          "type": "uint256"
        }
      ],
      "name": "bridge",
      "outputs": [],
      "stateMutability": "payable",
      "type": "function",
      "payable": true
    },
    {
      "inputs": [
        {
          "internalType": "uint32",
          "name": "nonce",
          "type": "uint32"
        },
        {
          "internalType": "bytes",
          "name": "payload",
          "type": "bytes"
        }
      ],
      "name": "receiveMessage",
      "outputs": [],
      "stateMutability": "nonpayable",
      "type": "function"
    }
  ],
  "bytecode": "0x608060405260c8600760006101000a81548160ff021916908360ff1602179055503480156200002d57600080fd5b50604051620013ff380380620013ff833981810160405281019062000053919062000104565b806000806101000a81548173ffffffffffffffffffffffffffffffffffffffff021916908373ffffffffffffffffffffffffffffffffffffffff1602179055505062000136565b600080fd5b600073ffffffffffffffffffffffffffffffffffffffff82169050919050565b6000620000cc826200009f565b9050919050565b620000de81620000bf565b8114620000ea57600080fd5b50565b600081519050620000fe81620000d3565b92915050565b6000602082840312156200011d576200011c6200009a565b5b60006200012d84828501620000ed565b91505092915050565b6112b980620001466000396000f3fe6080604052600436106100435760003560e01c80631a90a2191461004f5780631d6476051461007a578063c3de453d146100a3578063fb9a98d6146100bf5761004a565b3661004a57005b600080fd5b34801561005b57600080fd5b506100646100e8565b604051610071919061090f565b60405180910390f35b34801561008657600080fd5b506100a1600480360381019061009c9190610974565b61017f565b005b6100bd60048036038101906100b89190610a2b565b610384565b005b3480156100cb57600080fd5b506100e660048036038101906100e19190610bed565b610654565b005b60008060009054906101000a900473ffffffffffffffffffffffffffffffffffffffff1673ffffffffffffffffffffffffffffffffffffffff16631a90a2196040518163ffffffff1660e01b8152600401602060405180830381865afa158015610156573d6000803e3d6000fd5b505050506040513d601f19601f8201168201806040525081019061017a9190610c5e565b905090565b60006101896108be565b90506000801b600360008373ffffffffffffffffffffffffffffffffffffffff1673ffffffffffffffffffffffffffffffffffffffff168152602001908152602001600020541461020f576040517f08c379a000000000000000000000000000000000000000000000000000000000815260040161020690610ce8565b60405180910390fd5b600073ffffffffffffffffffffffffffffffffffffffff166002600084815260200190815260200160002060009054906101000a900473ffffffffffffffffffffffffffffffffffffffff1673ffffffffffffffffffffffffffffffffffffffff16146102b1576040517f08c379a00000000000000000000000000000000000000000000000000000000081526004016102a890610d54565b60405180910390fd5b81600360008373ffffffffffffffffffffffffffffffffffffffff1673ffffffffffffffffffffffffffffffffffffffff16815260200190815260200160002081905550806002600084815260200190815260200160002060006101000a81548173ffffffffffffffffffffffffffffffffffffffff021916908373ffffffffffffffffffffffffffffffffffffffff1602179055507fc71ce9687e4bf252667e23b2b1cb9433c5357a590c7f9ff6db754257a0be60c18183604051610378929190610d92565b60405180910390a15050565b600061038e6108be565b905060008390508073ffffffffffffffffffffffffffffffffffffffff166323b872dd8330866040518463ffffffff1660e01b81526004016103d293929190610dbb565b6020604051808303816000875af11580156103f1573d6000803e3d6000fd5b505050506040513d601f19601f820116820180604052508101906104159190610e2a565b506000600560008673ffffffffffffffffffffffffffffffffffffffff1673ffffffffffffffffffffffffffffffffffffffff16815260200190815260200160002054610461856108c6565b600360008673ffffffffffffffffffffffffffffffffffffffff1673ffffffffffffffffffffffffffffffffffffffff168152602001908152602001600020546040516020016104b393929190610e57565b604051602081830303815290604052905060008054906101000a900473ffffffffffffffffffffffffffffffffffffffff1673ffffffffffffffffffffffffffffffffffffffff1663b19a437e6105086100e8565b600060149054906101000a900463ffffffff1684600760009054906101000a900460ff166040518563ffffffff1660e01b815260040161054a93929190610f38565b60206040518083038185885af1158015610568573d6000803e3d6000fd5b50505050506040513d601f19601f8201168201806040525081019061058d9190610fb6565b506000601481819054906101000a900463ffffffff16809291906105b090611012565b91906101000a81548163ffffffff021916908363ffffffff160217905550507f50dd57836bf1f1b3e2da99474d9523be203f9f123be6eff189f0b264d740835b858585600360008873ffffffffffffffffffffffffffffffffffffffff1673ffffffffffffffffffffffffffffffffffffffff168152602001908152602001600020544260405161064595949392919061103e565b60405180910390a15050505050565b600160008363ffffffff1663ffffffff16815260200190815260200160002060009054906101000a900460ff16156106c1576040517f08c379a00000000000000000000000000000000000000000000000000000000081526004016106b8906110dd565b60405180910390fd5b60018060008463ffffffff1663ffffffff16815260200190815260200160002060006101000a81548160ff0219169083151502179055506000806000838060200190518101906107119190611112565b92509250925060006004600085815260200190815260200160002060009054906101000a900473ffffffffffffffffffffffffffffffffffffffff1690508073ffffffffffffffffffffffffffffffffffffffff1663a9059cbb6002600085815260200190815260200160002060009054906101000a900473ffffffffffffffffffffffffffffffffffffffff166107a8866108de565b6040518363ffffffff1660e01b81526004016107c5929190611165565b6020604051808303816000875af11580156107e4573d6000803e3d6000fd5b505050506040513d601f19601f820116820180604052508101906108089190610e2a565b507fec8e9e81edfaeb3df9cd313959f56708e48d0b705436cffec08fefb1d76acffe6004600086815260200190815260200160002060009054906101000a900473ffffffffffffffffffffffffffffffffffffffff16610867856108de565b846002600087815260200190815260200160002060009054906101000a900473ffffffffffffffffffffffffffffffffffffffff16426040516108ae95949392919061118e565b60405180910390a1505050505050565b600033905090565b6000620186a0826108d79190611210565b9050919050565b6000620186a0826108ef9190611241565b9050919050565b6000819050919050565b610909816108f6565b82525050565b60006020820190506109246000830184610900565b92915050565b6000604051905090565b600080fd5b600080fd5b6000819050919050565b6109518161093e565b811461095c57600080fd5b50565b60008135905061096e81610948565b92915050565b60006020828403121561098a57610989610934565b5b60006109988482850161095f565b91505092915050565b600073ffffffffffffffffffffffffffffffffffffffff82169050919050565b60006109cc826109a1565b9050919050565b6109dc816109c1565b81146109e757600080fd5b50565b6000813590506109f9816109d3565b92915050565b610a08816108f6565b8114610a1357600080fd5b50565b600081359050610a25816109ff565b92915050565b60008060408385031215610a4257610a41610934565b5b6000610a50858286016109ea565b9250506020610a6185828601610a16565b9150509250929050565b600063ffffffff82169050919050565b610a8481610a6b565b8114610a8f57600080fd5b50565b600081359050610aa181610a7b565b92915050565b600080fd5b600080fd5b6000601f19601f8301169050919050565b7f4e487b7100000000000000000000000000000000000000000000000000000000600052604160045260246000fd5b610afa82610ab1565b810181811067ffffffffffffffff82111715610b1957610b18610ac2565b5b80604052505050565b6000610b2c61092a565b9050610b388282610af1565b919050565b600067ffffffffffffffff821115610b5857610b57610ac2565b5b610b6182610ab1565b9050602081019050919050565b82818337600083830152505050565b6000610b90610b8b84610b3d565b610b22565b905082815260208101848484011115610bac57610bab610aac565b5b610bb7848285610b6e565b509392505050565b600082601f830112610bd457610bd3610aa7565b5b8135610be4848260208601610b7d565b91505092915050565b60008060408385031215610c0457610c03610934565b5b6000610c1285828601610a92565b925050602083013567ffffffffffffffff811115610c3357610c32610939565b5b610c3f85828601610bbf565b9150509250929050565b600081519050610c58816109ff565b92915050565b600060208284031215610c7457610c73610934565b5b6000610c8284828501610c49565b91505092915050565b600082825260208201905092915050565b7f416c676f2077616c6c657420616c726561647920757365640000000000000000600082015250565b6000610cd2601883610c8b565b9150610cdd82610c9c565b602082019050919050565b60006020820190508181036000830152610d0181610cc5565b9050919050565b7f45766d2077616c6c657420616c72656164792075736564000000000000000000600082015250565b6000610d3e601783610c8b565b9150610d4982610d08565b602082019050919050565b60006020820190508181036000830152610d6d81610d31565b9050919050565b610d7d816109c1565b82525050565b610d8c8161093e565b82525050565b6000604082019050610da76000830185610d74565b610db46020830184610d83565b9392505050565b6000606082019050610dd06000830186610d74565b610ddd6020830185610d74565b610dea6040830184610900565b949350505050565b60008115159050919050565b610e0781610df2565b8114610e1257600080fd5b50565b600081519050610e2481610dfe565b92915050565b600060208284031215610e4057610e3f610934565b5b6000610e4e84828501610e15565b91505092915050565b6000606082019050610e6c6000830186610900565b610e796020830185610900565b610e866040830184610d83565b949350505050565b610e9781610a6b565b82525050565b600081519050919050565b600082825260208201905092915050565b60005b83811015610ed7578082015181840152602081019050610ebc565b60008484015250505050565b6000610eee82610e9d565b610ef88185610ea8565b9350610f08818560208601610eb9565b610f1181610ab1565b840191505092915050565b600060ff82169050919050565b610f3281610f1c565b82525050565b6000606082019050610f4d6000830186610e8e565b8181036020830152610f5f8185610ee3565b9050610f6e6040830184610f29565b949350505050565b600067ffffffffffffffff82169050919050565b610f9381610f76565b8114610f9e57600080fd5b50565b600081519050610fb081610f8a565b92915050565b600060208284031215610fcc57610fcb610934565b5b6000610fda84828501610fa1565b91505092915050565b7f4e487b7100000000000000000000000000000000000000000000000000000000600052601160045260246000fd5b600061101d82610a6b565b915063ffffffff820361103357611032610fe3565b5b600182019050919050565b600060a0820190506110536000830188610d74565b6110606020830187610900565b61106d6040830186610d74565b61107a6060830185610d83565b6110876080830184610900565b9695505050505050565b7f4d65737361676520616c72656164792070726f63657373656400000000000000600082015250565b60006110c7601983610c8b565b91506110d282611091565b602082019050919050565b600060208201905081810360008301526110f6816110ba565b9050919050565b60008151905061110c81610948565b92915050565b60008060006060848603121561112b5761112a610934565b5b600061113986828701610c49565b935050602061114a86828701610c49565b925050604061115b868287016110fd565b9150509250925092565b600060408201905061117a6000830185610d74565b6111876020830184610900565b9392505050565b600060a0820190506111a36000830188610d74565b6111b06020830187610900565b6111bd6040830186610d83565b6111ca6060830185610d74565b6111d76080830184610900565b9695505050505050565b7f4e487b7100000000000000000000000000000000000000000000000000000000600052601260045260246000fd5b600061121b826108f6565b9150611226836108f6565b925082611236576112356111e1565b5b828204905092915050565b600061124c826108f6565b9150611257836108f6565b9250828202611265816108f6565b9150828204841483151761127c5761127b610fe3565b5b509291505056fea264697066735822122021e2750dc7c5fcf4178ee3d2c41554a1f02b5edc5af4e282e68086ae2bd533e364736f6c63430008110033",
  "immutableReferences": {},
  "source": "// SPDX-License-Identifier: MIT\r\npragma solidity ^0.8.17;\r\n\r\nimport \"./interfaces/IWormhole.sol\";\r\n\r\nimport \"./interfaces/IERC3643.sol\";\r\nimport \"@openzeppelin/contracts/utils/Context.sol\";\r\n\r\ncontract Tunnel is Context {\r\n    IWormhole private _wormhole;\r\n\r\n    uint32 private _nonce;\r\n\r\n    mapping(uint32 => bool) private _delivered;\r\n\r\n    mapping(bytes32 => address) private _evmWallet;\r\n    mapping(address => bytes32) private _algoWallet;\r\n\r\n    mapping(uint256 => address) private _evmAsset;\r\n    mapping(address => uint256) private _algoAsset;\r\n\r\n    uint256 private GAS_LIMIT;\r\n    uint8 private CONSISTENCY_LEVEL = 200;\r\n\r\n    event AssetLocked(\r\n        address assetId,\r\n        uint256 amount,\r\n        address evmWallet,\r\n        bytes32 algoWallet,\r\n        uint256 timestamp\r\n    );\r\n\r\n    event AssetReleased(\r\n        address assetId,\r\n        uint256 amount,\r\n        bytes32 algoWallet,\r\n        address evmWallet,\r\n        uint256 timestamp\r\n    );\r\n\r\n    event WalletCreated(address evmWallet, bytes32 algoWallet);\r\n\r\n    constructor(address wormhole_) {\r\n        _wormhole = IWormhole(wormhole_);\r\n    }\r\n\r\n    function createWallet(bytes32 algoWallet) external {\r\n        address evmWallet = _msgSender();\r\n\r\n        require(\r\n            _algoWallet[evmWallet] == bytes32(0),\r\n            \"Algo wallet already used\"\r\n        );\r\n\r\n        require(\r\n            _evmWallet[algoWallet] == address(0),\r\n            \"Evm wallet already used\"\r\n        );\r\n\r\n        _algoWallet[evmWallet] = algoWallet;\r\n        _evmWallet[algoWallet] = evmWallet;\r\n\r\n        emit WalletCreated(evmWallet, algoWallet);\r\n    }\r\n\r\n    /// @dev For getting briging fee\r\n    function messageFee() public view returns (uint256) {\r\n        return _wormhole.messageFee();\r\n    }\r\n\r\n    /// @dev This function locks the Original NFT\r\n    /// and tell whirlExtension Contract to mint a new similar NFT\r\n    function bridge(address assetId, uint256 amount) external payable {\r\n        address caller = _msgSender();\r\n\r\n        IERC3643 asset = IERC3643(assetId);\r\n        asset.transferFrom(caller, address(this), amount);\r\n\r\n        bytes memory payload = abi.encode(\r\n            _algoAsset[assetId],\r\n            _algoAmount(amount),\r\n            _algoWallet[caller]\r\n        );\r\n\r\n        _wormhole.publishMessage{value: messageFee()}(\r\n            _nonce,\r\n            payload,\r\n            CONSISTENCY_LEVEL\r\n        );\r\n\r\n        _nonce++;\r\n\r\n        emit AssetLocked(\r\n            assetId,\r\n            amount,\r\n            caller,\r\n            _algoWallet[caller],\r\n            block.timestamp\r\n        );\r\n    }\r\n\r\n    // @dev This function unlocks the Original asset to the\r\n    function receiveMessage(uint32 nonce, bytes memory payload) external {\r\n        // Ensure no duplicate deliveries\r\n        require(!_delivered[nonce], \"Message already processed\");\r\n        _delivered[nonce] = true;\r\n\r\n        // Parse the payload and do the corresponding actions!\r\n        (uint256 assetId, uint256 amount, bytes32 algoWallet) = abi.decode(\r\n            payload,\r\n            (uint256, uint256, bytes32)\r\n        );\r\n\r\n        IERC3643 asset = IERC3643(_evmAsset[assetId]);\r\n        asset.transfer(_evmWallet[algoWallet], _evmAmount(amount));\r\n\r\n        emit AssetReleased(\r\n            _evmAsset[assetId],\r\n            _evmAmount(amount),\r\n            algoWallet,\r\n            _evmWallet[algoWallet],\r\n            block.timestamp\r\n        );\r\n    }\r\n\r\n    function _evmAmount(uint256 amount) private pure returns (uint256) {\r\n        return amount * 100_000;\r\n    }\r\n\r\n    function _algoAmount(uint256 amount) private pure returns (uint256) {\r\n        return amount / 100_000;\r\n    }\r\n\r\n    receive() external payable {}\r\n}\r\n",
  "sourcePath": "C:\\Users\\DELL\\Documents\\tunnel\\solidity\\contracts\\Tunnel.sol",
  "compiler": {
    "name": "solc",
    "version": "0.8.17+commit.8df45f5f.Emscripten.clang"
  },
  "schemaVersion": "3.4.11",
  "updatedAt": "2023-11-02T15:07:58.010Z",
  "networkType": "ethereum",
  "devdoc": {
    "kind": "dev",
    "methods": {
      "bridge(address,uint256)": {
        "details": "This function locks the Original NFT and tell whirlExtension Contract to mint a new similar NFT"
      },
      "messageFee()": {
        "details": "For getting briging fee"
      }
    },
    "version": 1
  },
  "userdoc": {
    "kind": "user",
    "methods": {},
    "version": 1
  }
}