{
  "contractName": "WormholeShares",
  "abi": [
    {
      "inputs": [],
      "stateMutability": "nonpayable",
      "type": "constructor"
    },
    {
      "anonymous": false,
      "inputs": [
        {
          "indexed": true,
          "internalType": "address",
          "name": "owner",
          "type": "address"
        },
        {
          "indexed": true,
          "internalType": "address",
          "name": "spender",
          "type": "address"
        },
        {
          "indexed": false,
          "internalType": "uint256",
          "name": "value",
          "type": "uint256"
        }
      ],
      "name": "Approval",
      "type": "event"
    },
    {
      "anonymous": false,
      "inputs": [
        {
          "indexed": true,
          "internalType": "address",
          "name": "from",
          "type": "address"
        },
        {
          "indexed": true,
          "internalType": "address",
          "name": "to",
          "type": "address"
        },
        {
          "indexed": false,
          "internalType": "uint256",
          "name": "value",
          "type": "uint256"
        }
      ],
      "name": "Transfer",
      "type": "event"
    },
    {
      "inputs": [
        {
          "internalType": "address",
          "name": "owner",
          "type": "address"
        },
        {
          "internalType": "address",
          "name": "spender",
          "type": "address"
        }
      ],
      "name": "allowance",
      "outputs": [
        {
          "internalType": "uint256",
          "name": "",
          "type": "uint256"
        }
      ],
      "stateMutability": "view",
      "type": "function"
    },
    {
      "inputs": [
        {
          "internalType": "address",
          "name": "spender",
          "type": "address"
        },
        {
          "internalType": "uint256",
          "name": "amount",
          "type": "uint256"
        }
      ],
      "name": "approve",
      "outputs": [
        {
          "internalType": "bool",
          "name": "",
          "type": "bool"
        }
      ],
      "stateMutability": "nonpayable",
      "type": "function"
    },
    {
      "inputs": [
        {
          "internalType": "address",
          "name": "account",
          "type": "address"
        }
      ],
      "name": "balanceOf",
      "outputs": [
        {
          "internalType": "uint256",
          "name": "",
          "type": "uint256"
        }
      ],
      "stateMutability": "view",
      "type": "function"
    },
    {
      "inputs": [],
      "name": "decimals",
      "outputs": [
        {
          "internalType": "uint8",
          "name": "",
          "type": "uint8"
        }
      ],
      "stateMutability": "view",
      "type": "function"
    },
    {
      "inputs": [
        {
          "internalType": "address",
          "name": "spender",
          "type": "address"
        },
        {
          "internalType": "uint256",
          "name": "subtractedValue",
          "type": "uint256"
        }
      ],
      "name": "decreaseAllowance",
      "outputs": [
        {
          "internalType": "bool",
          "name": "",
          "type": "bool"
        }
      ],
      "stateMutability": "nonpayable",
      "type": "function"
    },
    {
      "inputs": [
        {
          "internalType": "address",
          "name": "spender",
          "type": "address"
        },
        {
          "internalType": "uint256",
          "name": "addedValue",
          "type": "uint256"
        }
      ],
      "name": "increaseAllowance",
      "outputs": [
        {
          "internalType": "bool",
          "name": "",
          "type": "bool"
        }
      ],
      "stateMutability": "nonpayable",
      "type": "function"
    },
    {
      "inputs": [],
      "name": "name",
      "outputs": [
        {
          "internalType": "string",
          "name": "",
          "type": "string"
        }
      ],
      "stateMutability": "view",
      "type": "function"
    },
    {
      "inputs": [],
      "name": "symbol",
      "outputs": [
        {
          "internalType": "string",
          "name": "",
          "type": "string"
        }
      ],
      "stateMutability": "view",
      "type": "function"
    },
    {
      "inputs": [],
      "name": "totalSupply",
      "outputs": [
        {
          "internalType": "uint256",
          "name": "",
          "type": "uint256"
        }
      ],
      "stateMutability": "view",
      "type": "function"
    },
    {
      "inputs": [
        {
          "internalType": "address",
          "name": "to",
          "type": "address"
        },
        {
          "internalType": "uint256",
          "name": "amount",
          "type": "uint256"
        }
      ],
      "name": "transfer",
      "outputs": [
        {
          "internalType": "bool",
          "name": "",
          "type": "bool"
        }
      ],
      "stateMutability": "nonpayable",
      "type": "function"
    },
    {
      "inputs": [
        {
          "internalType": "address",
          "name": "from",
          "type": "address"
        },
        {
          "internalType": "address",
          "name": "to",
          "type": "address"
        },
        {
          "internalType": "uint256",
          "name": "amount",
          "type": "uint256"
        }
      ],
      "name": "transferFrom",
      "outputs": [
        {
          "internalType": "bool",
          "name": "",
          "type": "bool"
        }
      ],
      "stateMutability": "nonpayable",
      "type": "function"
    },
    {
      "inputs": [
        {
          "internalType": "uint256",
          "name": "amount",
          "type": "uint256"
        }
      ],
      "name": "faucet",
      "outputs": [],
      "stateMutability": "nonpayable",
      "type": "function"
    },
    {
      "inputs": [],
      "name": "allow",
      "outputs": [],
      "stateMutability": "nonpayable",
      "type": "function"
    }
  ],
  "bytecode": "0x60806040523480156200001157600080fd5b506040518060400160405280600f81526020017f576f726d686f6c652053686172657300000000000000000000000000000000008152506040518060400160405280600781526020017f575348415245530000000000000000000000000000000000000000000000000081525081600390816200008f9190620004b7565b508060049081620000a19190620004b7565b505050620000c03069d3c21bcecceda1000000620000c660201b60201c565b620006b9565b600073ffffffffffffffffffffffffffffffffffffffff168273ffffffffffffffffffffffffffffffffffffffff160362000138576040517f08c379a00000000000000000000000000000000000000000000000000000000081526004016200012f90620005ff565b60405180910390fd5b6200014c600083836200023360201b60201c565b806002600082825462000160919062000650565b92505081905550806000808473ffffffffffffffffffffffffffffffffffffffff1673ffffffffffffffffffffffffffffffffffffffff168152602001908152602001600020600082825401925050819055508173ffffffffffffffffffffffffffffffffffffffff16600073ffffffffffffffffffffffffffffffffffffffff167fddf252ad1be2c89b69c2b068fc378daa952ba7f163c4a11628f55a4df523b3ef836040516200021391906200069c565b60405180910390a36200022f600083836200023860201b60201c565b5050565b505050565b505050565b600081519050919050565b7f4e487b7100000000000000000000000000000000000000000000000000000000600052604160045260246000fd5b7f4e487b7100000000000000000000000000000000000000000000000000000000600052602260045260246000fd5b60006002820490506001821680620002bf57607f821691505b602082108103620002d557620002d462000277565b5b50919050565b60008190508160005260206000209050919050565b60006020601f8301049050919050565b600082821b905092915050565b6000600883026200033f7fffffffffffffffffffffffffffffffffffffffffffffffffffffffffffffffff8262000300565b6200034b868362000300565b95508019841693508086168417925050509392505050565b6000819050919050565b6000819050919050565b600062000398620003926200038c8462000363565b6200036d565b62000363565b9050919050565b6000819050919050565b620003b48362000377565b620003cc620003c3826200039f565b8484546200030d565b825550505050565b600090565b620003e3620003d4565b620003f0818484620003a9565b505050565b5b8181101562000418576200040c600082620003d9565b600181019050620003f6565b5050565b601f82111562000467576200043181620002db565b6200043c84620002f0565b810160208510156200044c578190505b620004646200045b85620002f0565b830182620003f5565b50505b505050565b600082821c905092915050565b60006200048c600019846008026200046c565b1980831691505092915050565b6000620004a7838362000479565b9150826002028217905092915050565b620004c2826200023d565b67ffffffffffffffff811115620004de57620004dd62000248565b5b620004ea8254620002a6565b620004f78282856200041c565b600060209050601f8311600181146200052f57600084156200051a578287015190505b62000526858262000499565b86555062000596565b601f1984166200053f86620002db565b60005b82811015620005695784890151825560018201915060208501945060208101905062000542565b8683101562000589578489015162000585601f89168262000479565b8355505b6001600288020188555050505b505050505050565b600082825260208201905092915050565b7f45524332303a206d696e7420746f20746865207a65726f206164647265737300600082015250565b6000620005e7601f836200059e565b9150620005f482620005af565b602082019050919050565b600060208201905081810360008301526200061a81620005d8565b9050919050565b7f4e487b7100000000000000000000000000000000000000000000000000000000600052601160045260246000fd5b60006200065d8262000363565b91506200066a8362000363565b925082820190508082111562000685576200068462000621565b5b92915050565b620006968162000363565b82525050565b6000602082019050620006b360008301846200068b565b92915050565b61137d80620006c96000396000f3fe608060405234801561001057600080fd5b50600436106100cf5760003560e01c8063579158971161008c578063a457c2d711610066578063a457c2d714610228578063a9059cbb14610258578063b1b3d3f614610288578063dd62ed3e14610292576100cf565b806357915897146101be57806370a08231146101da57806395d89b411461020a576100cf565b806306fdde03146100d4578063095ea7b3146100f257806318160ddd1461012257806323b872dd14610140578063313ce56714610170578063395093511461018e575b600080fd5b6100dc6102c2565b6040516100e99190610c2d565b60405180910390f35b61010c60048036038101906101079190610ce8565b610354565b6040516101199190610d43565b60405180910390f35b61012a610377565b6040516101379190610d6d565b60405180910390f35b61015a60048036038101906101559190610d88565b610381565b6040516101679190610d43565b60405180910390f35b6101786103b0565b6040516101859190610df7565b60405180910390f35b6101a860048036038101906101a39190610ce8565b6103b9565b6040516101b59190610d43565b60405180910390f35b6101d860048036038101906101d39190610e12565b6103f0565b005b6101f460048036038101906101ef9190610e3f565b6103fe565b6040516102019190610d6d565b60405180910390f35b610212610446565b60405161021f9190610c2d565b60405180910390f35b610242600480360381019061023d9190610ce8565b6104d8565b60405161024f9190610d43565b60405180910390f35b610272600480360381019061026d9190610ce8565b61054f565b60405161027f9190610d43565b60405180910390f35b610290610572565b005b6102ac60048036038101906102a79190610e6c565b6105cc565b6040516102b99190610d6d565b60405180910390f35b6060600380546102d190610edb565b80601f01602080910402602001604051908101604052809291908181526020018280546102fd90610edb565b801561034a5780601f1061031f5761010080835404028352916020019161034a565b820191906000526020600020905b81548152906001019060200180831161032d57829003601f168201915b5050505050905090565b60008061035f610653565b905061036c81858561065b565b600191505092915050565b6000600254905090565b60008061038c610653565b9050610399858285610824565b6103a48585856108b0565b60019150509392505050565b60006012905090565b6000806103c4610653565b90506103e58185856103d685896105cc565b6103e09190610f3b565b61065b565b600191505092915050565b6103fb3033836108b0565b50565b60008060008373ffffffffffffffffffffffffffffffffffffffff1673ffffffffffffffffffffffffffffffffffffffff168152602001908152602001600020549050919050565b60606004805461045590610edb565b80601f016020809104026020016040519081016040528092919081815260200182805461048190610edb565b80156104ce5780601f106104a3576101008083540402835291602001916104ce565b820191906000526020600020905b8154815290600101906020018083116104b157829003601f168201915b5050505050905090565b6000806104e3610653565b905060006104f182866105cc565b905083811015610536576040517f08c379a000000000000000000000000000000000000000000000000000000000815260040161052d90610fe1565b60405180910390fd5b610543828686840361065b565b60019250505092915050565b60008061055a610653565b90506105678185856108b0565b600191505092915050565b6001600560003373ffffffffffffffffffffffffffffffffffffffff1673ffffffffffffffffffffffffffffffffffffffff16815260200190815260200160002060006101000a81548160ff021916908315150217905550565b6000600160008473ffffffffffffffffffffffffffffffffffffffff1673ffffffffffffffffffffffffffffffffffffffff16815260200190815260200160002060008373ffffffffffffffffffffffffffffffffffffffff1673ffffffffffffffffffffffffffffffffffffffff16815260200190815260200160002054905092915050565b600033905090565b600073ffffffffffffffffffffffffffffffffffffffff168373ffffffffffffffffffffffffffffffffffffffff16036106ca576040517f08c379a00000000000000000000000000000000000000000000000000000000081526004016106c190611073565b60405180910390fd5b600073ffffffffffffffffffffffffffffffffffffffff168273ffffffffffffffffffffffffffffffffffffffff1603610739576040517f08c379a000000000000000000000000000000000000000000000000000000000815260040161073090611105565b60405180910390fd5b80600160008573ffffffffffffffffffffffffffffffffffffffff1673ffffffffffffffffffffffffffffffffffffffff16815260200190815260200160002060008473ffffffffffffffffffffffffffffffffffffffff1673ffffffffffffffffffffffffffffffffffffffff168152602001908152602001600020819055508173ffffffffffffffffffffffffffffffffffffffff168373ffffffffffffffffffffffffffffffffffffffff167f8c5be1e5ebec7d5bd14f71427d1e84f3dd0314c0f7b2291e5b200ac8c7c3b925836040516108179190610d6d565b60405180910390a3505050565b600061083084846105cc565b90507fffffffffffffffffffffffffffffffffffffffffffffffffffffffffffffffff81146108aa578181101561089c576040517f08c379a000000000000000000000000000000000000000000000000000000000815260040161089390611171565b60405180910390fd5b6108a9848484840361065b565b5b50505050565b60011515600560008473ffffffffffffffffffffffffffffffffffffffff1673ffffffffffffffffffffffffffffffffffffffff16815260200190815260200160002060009054906101000a900460ff1615151461090d57600080fd5b61091883838361091d565b505050565b600073ffffffffffffffffffffffffffffffffffffffff168373ffffffffffffffffffffffffffffffffffffffff160361098c576040517f08c379a000000000000000000000000000000000000000000000000000000000815260040161098390611203565b60405180910390fd5b600073ffffffffffffffffffffffffffffffffffffffff168273ffffffffffffffffffffffffffffffffffffffff16036109fb576040517f08c379a00000000000000000000000000000000000000000000000000000000081526004016109f290611295565b60405180910390fd5b610a06838383610b93565b60008060008573ffffffffffffffffffffffffffffffffffffffff1673ffffffffffffffffffffffffffffffffffffffff16815260200190815260200160002054905081811015610a8c576040517f08c379a0000000000000000000000000000000000000000000000000000000008152600401610a8390611327565b60405180910390fd5b8181036000808673ffffffffffffffffffffffffffffffffffffffff1673ffffffffffffffffffffffffffffffffffffffff16815260200190815260200160002081905550816000808573ffffffffffffffffffffffffffffffffffffffff1673ffffffffffffffffffffffffffffffffffffffff168152602001908152602001600020600082825401925050819055508273ffffffffffffffffffffffffffffffffffffffff168473ffffffffffffffffffffffffffffffffffffffff167fddf252ad1be2c89b69c2b068fc378daa952ba7f163c4a11628f55a4df523b3ef84604051610b7a9190610d6d565b60405180910390a3610b8d848484610b98565b50505050565b505050565b505050565b600081519050919050565b600082825260208201905092915050565b60005b83811015610bd7578082015181840152602081019050610bbc565b60008484015250505050565b6000601f19601f8301169050919050565b6000610bff82610b9d565b610c098185610ba8565b9350610c19818560208601610bb9565b610c2281610be3565b840191505092915050565b60006020820190508181036000830152610c478184610bf4565b905092915050565b600080fd5b600073ffffffffffffffffffffffffffffffffffffffff82169050919050565b6000610c7f82610c54565b9050919050565b610c8f81610c74565b8114610c9a57600080fd5b50565b600081359050610cac81610c86565b92915050565b6000819050919050565b610cc581610cb2565b8114610cd057600080fd5b50565b600081359050610ce281610cbc565b92915050565b60008060408385031215610cff57610cfe610c4f565b5b6000610d0d85828601610c9d565b9250506020610d1e85828601610cd3565b9150509250929050565b60008115159050919050565b610d3d81610d28565b82525050565b6000602082019050610d586000830184610d34565b92915050565b610d6781610cb2565b82525050565b6000602082019050610d826000830184610d5e565b92915050565b600080600060608486031215610da157610da0610c4f565b5b6000610daf86828701610c9d565b9350506020610dc086828701610c9d565b9250506040610dd186828701610cd3565b9150509250925092565b600060ff82169050919050565b610df181610ddb565b82525050565b6000602082019050610e0c6000830184610de8565b92915050565b600060208284031215610e2857610e27610c4f565b5b6000610e3684828501610cd3565b91505092915050565b600060208284031215610e5557610e54610c4f565b5b6000610e6384828501610c9d565b91505092915050565b60008060408385031215610e8357610e82610c4f565b5b6000610e9185828601610c9d565b9250506020610ea285828601610c9d565b9150509250929050565b7f4e487b7100000000000000000000000000000000000000000000000000000000600052602260045260246000fd5b60006002820490506001821680610ef357607f821691505b602082108103610f0657610f05610eac565b5b50919050565b7f4e487b7100000000000000000000000000000000000000000000000000000000600052601160045260246000fd5b6000610f4682610cb2565b9150610f5183610cb2565b9250828201905080821115610f6957610f68610f0c565b5b92915050565b7f45524332303a2064656372656173656420616c6c6f77616e63652062656c6f7760008201527f207a65726f000000000000000000000000000000000000000000000000000000602082015250565b6000610fcb602583610ba8565b9150610fd682610f6f565b604082019050919050565b60006020820190508181036000830152610ffa81610fbe565b9050919050565b7f45524332303a20617070726f76652066726f6d20746865207a65726f2061646460008201527f7265737300000000000000000000000000000000000000000000000000000000602082015250565b600061105d602483610ba8565b915061106882611001565b604082019050919050565b6000602082019050818103600083015261108c81611050565b9050919050565b7f45524332303a20617070726f766520746f20746865207a65726f20616464726560008201527f7373000000000000000000000000000000000000000000000000000000000000602082015250565b60006110ef602283610ba8565b91506110fa82611093565b604082019050919050565b6000602082019050818103600083015261111e816110e2565b9050919050565b7f45524332303a20696e73756666696369656e7420616c6c6f77616e6365000000600082015250565b600061115b601d83610ba8565b915061116682611125565b602082019050919050565b6000602082019050818103600083015261118a8161114e565b9050919050565b7f45524332303a207472616e736665722066726f6d20746865207a65726f20616460008201527f6472657373000000000000000000000000000000000000000000000000000000602082015250565b60006111ed602583610ba8565b91506111f882611191565b604082019050919050565b6000602082019050818103600083015261121c816111e0565b9050919050565b7f45524332303a207472616e7366657220746f20746865207a65726f206164647260008201527f6573730000000000000000000000000000000000000000000000000000000000602082015250565b600061127f602383610ba8565b915061128a82611223565b604082019050919050565b600060208201905081810360008301526112ae81611272565b9050919050565b7f45524332303a207472616e7366657220616d6f756e742065786365656473206260008201527f616c616e63650000000000000000000000000000000000000000000000000000602082015250565b6000611311602683610ba8565b915061131c826112b5565b604082019050919050565b6000602082019050818103600083015261134081611304565b905091905056fea2646970667358221220c54d102e385f06c9b1db5ead60e4d7c967fa863fb8313a02a890e5f8301c13fc64736f6c63430008110033",
  "immutableReferences": {},
  "source": "// SPDX-License-Identifier: MIT\r\npragma solidity ^0.8.17;\r\n\r\nimport \"./interfaces/IWormhole.sol\";\r\n\r\nimport \"@openzeppelin/contracts/token/ERC20/ERC20.sol\";\r\n\r\ncontract WormholeShares is ERC20 {\r\n    mapping(address => bool) private _allowed;\r\n\r\n    constructor() ERC20(\"Wormhole Shares\", \"WSHARES\") {\r\n        _mint(address(this), 1_000_000_000_000_000_000_000_000);\r\n    }\r\n\r\n    function faucet(uint256 amount) external {\r\n        _transfer(address(this), msg.sender, amount);\r\n    }\r\n\r\n    function allow() external {\r\n        _allowed[msg.sender] = true;\r\n    }\r\n\r\n    function _transfer(\r\n        address from,\r\n        address to,\r\n        uint256 amount\r\n    ) internal override {\r\n        require(_allowed[to] == true);\r\n        super._transfer(from, to, amount);\r\n    }\r\n}\r\n",
  "sourcePath": "C:\\Users\\DELL\\Documents\\tunnel\\solidity\\contracts\\WormholeShares.sol",
  "compiler": {
    "name": "solc",
    "version": "0.8.17+commit.8df45f5f.Emscripten.clang"
  },
  "schemaVersion": "3.4.11",
  "updatedAt": "2023-11-12T09:42:59.121Z",
  "devdoc": {
    "kind": "dev",
    "methods": {
      "allowance(address,address)": {
        "details": "See {IERC20-allowance}."
      },
      "approve(address,uint256)": {
        "details": "See {IERC20-approve}. NOTE: If `amount` is the maximum `uint256`, the allowance is not updated on `transferFrom`. This is semantically equivalent to an infinite approval. Requirements: - `spender` cannot be the zero address."
      },
      "balanceOf(address)": {
        "details": "See {IERC20-balanceOf}."
      },
      "decimals()": {
        "details": "Returns the number of decimals used to get its user representation. For example, if `decimals` equals `2`, a balance of `505` tokens should be displayed to a user as `5.05` (`505 / 10 ** 2`). Tokens usually opt for a value of 18, imitating the relationship between Ether and Wei. This is the default value returned by this function, unless it's overridden. NOTE: This information is only used for _display_ purposes: it in no way affects any of the arithmetic of the contract, including {IERC20-balanceOf} and {IERC20-transfer}."
      },
      "decreaseAllowance(address,uint256)": {
        "details": "Atomically decreases the allowance granted to `spender` by the caller. This is an alternative to {approve} that can be used as a mitigation for problems described in {IERC20-approve}. Emits an {Approval} event indicating the updated allowance. Requirements: - `spender` cannot be the zero address. - `spender` must have allowance for the caller of at least `subtractedValue`."
      },
      "increaseAllowance(address,uint256)": {
        "details": "Atomically increases the allowance granted to `spender` by the caller. This is an alternative to {approve} that can be used as a mitigation for problems described in {IERC20-approve}. Emits an {Approval} event indicating the updated allowance. Requirements: - `spender` cannot be the zero address."
      },
      "name()": {
        "details": "Returns the name of the token."
      },
      "symbol()": {
        "details": "Returns the symbol of the token, usually a shorter version of the name."
      },
      "totalSupply()": {
        "details": "See {IERC20-totalSupply}."
      },
      "transfer(address,uint256)": {
        "details": "See {IERC20-transfer}. Requirements: - `to` cannot be the zero address. - the caller must have a balance of at least `amount`."
      },
      "transferFrom(address,address,uint256)": {
        "details": "See {IERC20-transferFrom}. Emits an {Approval} event indicating the updated allowance. This is not required by the EIP. See the note at the beginning of {ERC20}. NOTE: Does not update the allowance if the current allowance is the maximum `uint256`. Requirements: - `from` and `to` cannot be the zero address. - `from` must have a balance of at least `amount`. - the caller must have allowance for ``from``'s tokens of at least `amount`."
      }
    },
    "version": 1
  },
  "userdoc": {
    "kind": "user",
    "methods": {},
    "version": 1
  }
}