{
  "contractName": "WormholeShares",
  "abi": [
    {
      "inputs": [
        {
          "internalType": "address",
          "name": "tunnelFi",
          "type": "address"
        }
      ],
      "stateMutability": "nonpayable",
      "type": "constructor"
    },
    {
      "anonymous": false,
      "inputs": [
        {
          "indexed": true,
          "internalType": "address",
          "name": "owner",
          "type": "address"
        },
        {
          "indexed": true,
          "internalType": "address",
          "name": "spender",
          "type": "address"
        },
        {
          "indexed": false,
          "internalType": "uint256",
          "name": "value",
          "type": "uint256"
        }
      ],
      "name": "Approval",
      "type": "event"
    },
    {
      "anonymous": false,
      "inputs": [
        {
          "indexed": true,
          "internalType": "address",
          "name": "from",
          "type": "address"
        },
        {
          "indexed": true,
          "internalType": "address",
          "name": "to",
          "type": "address"
        },
        {
          "indexed": false,
          "internalType": "uint256",
          "name": "value",
          "type": "uint256"
        }
      ],
      "name": "Transfer",
      "type": "event"
    },
    {
      "inputs": [
        {
          "internalType": "address",
          "name": "owner",
          "type": "address"
        },
        {
          "internalType": "address",
          "name": "spender",
          "type": "address"
        }
      ],
      "name": "allowance",
      "outputs": [
        {
          "internalType": "uint256",
          "name": "",
          "type": "uint256"
        }
      ],
      "stateMutability": "view",
      "type": "function",
      "constant": true
    },
    {
      "inputs": [
        {
          "internalType": "address",
          "name": "spender",
          "type": "address"
        },
        {
          "internalType": "uint256",
          "name": "amount",
          "type": "uint256"
        }
      ],
      "name": "approve",
      "outputs": [
        {
          "internalType": "bool",
          "name": "",
          "type": "bool"
        }
      ],
      "stateMutability": "nonpayable",
      "type": "function"
    },
    {
      "inputs": [
        {
          "internalType": "address",
          "name": "account",
          "type": "address"
        }
      ],
      "name": "balanceOf",
      "outputs": [
        {
          "internalType": "uint256",
          "name": "",
          "type": "uint256"
        }
      ],
      "stateMutability": "view",
      "type": "function",
      "constant": true
    },
    {
      "inputs": [],
      "name": "decimals",
      "outputs": [
        {
          "internalType": "uint8",
          "name": "",
          "type": "uint8"
        }
      ],
      "stateMutability": "view",
      "type": "function",
      "constant": true
    },
    {
      "inputs": [
        {
          "internalType": "address",
          "name": "spender",
          "type": "address"
        },
        {
          "internalType": "uint256",
          "name": "subtractedValue",
          "type": "uint256"
        }
      ],
      "name": "decreaseAllowance",
      "outputs": [
        {
          "internalType": "bool",
          "name": "",
          "type": "bool"
        }
      ],
      "stateMutability": "nonpayable",
      "type": "function"
    },
    {
      "inputs": [
        {
          "internalType": "address",
          "name": "spender",
          "type": "address"
        },
        {
          "internalType": "uint256",
          "name": "addedValue",
          "type": "uint256"
        }
      ],
      "name": "increaseAllowance",
      "outputs": [
        {
          "internalType": "bool",
          "name": "",
          "type": "bool"
        }
      ],
      "stateMutability": "nonpayable",
      "type": "function"
    },
    {
      "inputs": [],
      "name": "name",
      "outputs": [
        {
          "internalType": "string",
          "name": "",
          "type": "string"
        }
      ],
      "stateMutability": "view",
      "type": "function",
      "constant": true
    },
    {
      "inputs": [],
      "name": "symbol",
      "outputs": [
        {
          "internalType": "string",
          "name": "",
          "type": "string"
        }
      ],
      "stateMutability": "view",
      "type": "function",
      "constant": true
    },
    {
      "inputs": [],
      "name": "totalSupply",
      "outputs": [
        {
          "internalType": "uint256",
          "name": "",
          "type": "uint256"
        }
      ],
      "stateMutability": "view",
      "type": "function",
      "constant": true
    },
    {
      "inputs": [
        {
          "internalType": "address",
          "name": "to",
          "type": "address"
        },
        {
          "internalType": "uint256",
          "name": "amount",
          "type": "uint256"
        }
      ],
      "name": "transfer",
      "outputs": [
        {
          "internalType": "bool",
          "name": "",
          "type": "bool"
        }
      ],
      "stateMutability": "nonpayable",
      "type": "function"
    },
    {
      "inputs": [
        {
          "internalType": "address",
          "name": "from",
          "type": "address"
        },
        {
          "internalType": "address",
          "name": "to",
          "type": "address"
        },
        {
          "internalType": "uint256",
          "name": "amount",
          "type": "uint256"
        }
      ],
      "name": "transferFrom",
      "outputs": [
        {
          "internalType": "bool",
          "name": "",
          "type": "bool"
        }
      ],
      "stateMutability": "nonpayable",
      "type": "function"
    },
    {
      "inputs": [],
      "name": "allow",
      "outputs": [],
      "stateMutability": "nonpayable",
      "type": "function"
    }
  ],
  "bytecode": "0x60806040523480156200001157600080fd5b5060405162001b9e38038062001b9e8339818101604052810190620000379190620003d5565b6040518060400160405280600f81526020017f576f726d686f6c652053686172657300000000000000000000000000000000008152506040518060400160405280600781526020017f57534841524553000000000000000000000000000000000000000000000000008152508160039081620000b4919062000681565b508060049081620000c6919062000681565b505050620000e58169d3c21bcecceda1000000620001f460201b60201c565b6001600560008373ffffffffffffffffffffffffffffffffffffffff1673ffffffffffffffffffffffffffffffffffffffff16815260200190815260200160002060006101000a81548160ff0219169083151502179055506001600560003373ffffffffffffffffffffffffffffffffffffffff1673ffffffffffffffffffffffffffffffffffffffff16815260200190815260200160002060006101000a81548160ff0219169083151502179055506001600560003073ffffffffffffffffffffffffffffffffffffffff1673ffffffffffffffffffffffffffffffffffffffff16815260200190815260200160002060006101000a81548160ff0219169083151502179055505062000883565b600073ffffffffffffffffffffffffffffffffffffffff168273ffffffffffffffffffffffffffffffffffffffff160362000266576040517f08c379a00000000000000000000000000000000000000000000000000000000081526004016200025d90620007c9565b60405180910390fd5b6200027a600083836200036160201b60201c565b80600260008282546200028e91906200081a565b92505081905550806000808473ffffffffffffffffffffffffffffffffffffffff1673ffffffffffffffffffffffffffffffffffffffff168152602001908152602001600020600082825401925050819055508173ffffffffffffffffffffffffffffffffffffffff16600073ffffffffffffffffffffffffffffffffffffffff167fddf252ad1be2c89b69c2b068fc378daa952ba7f163c4a11628f55a4df523b3ef8360405162000341919062000866565b60405180910390a36200035d600083836200036660201b60201c565b5050565b505050565b505050565b600080fd5b600073ffffffffffffffffffffffffffffffffffffffff82169050919050565b60006200039d8262000370565b9050919050565b620003af8162000390565b8114620003bb57600080fd5b50565b600081519050620003cf81620003a4565b92915050565b600060208284031215620003ee57620003ed6200036b565b5b6000620003fe84828501620003be565b91505092915050565b600081519050919050565b7f4e487b7100000000000000000000000000000000000000000000000000000000600052604160045260246000fd5b7f4e487b7100000000000000000000000000000000000000000000000000000000600052602260045260246000fd5b600060028204905060018216806200048957607f821691505b6020821081036200049f576200049e62000441565b5b50919050565b60008190508160005260206000209050919050565b60006020601f8301049050919050565b600082821b905092915050565b600060088302620005097fffffffffffffffffffffffffffffffffffffffffffffffffffffffffffffffff82620004ca565b620005158683620004ca565b95508019841693508086168417925050509392505050565b6000819050919050565b6000819050919050565b6000620005626200055c62000556846200052d565b62000537565b6200052d565b9050919050565b6000819050919050565b6200057e8362000541565b620005966200058d8262000569565b848454620004d7565b825550505050565b600090565b620005ad6200059e565b620005ba81848462000573565b505050565b5b81811015620005e257620005d6600082620005a3565b600181019050620005c0565b5050565b601f8211156200063157620005fb81620004a5565b6200060684620004ba565b8101602085101562000616578190505b6200062e6200062585620004ba565b830182620005bf565b50505b505050565b600082821c905092915050565b6000620006566000198460080262000636565b1980831691505092915050565b600062000671838362000643565b9150826002028217905092915050565b6200068c8262000407565b67ffffffffffffffff811115620006a857620006a762000412565b5b620006b4825462000470565b620006c1828285620005e6565b600060209050601f831160018114620006f95760008415620006e4578287015190505b620006f0858262000663565b86555062000760565b601f1984166200070986620004a5565b60005b8281101562000733578489015182556001820191506020850194506020810190506200070c565b868310156200075357848901516200074f601f89168262000643565b8355505b6001600288020188555050505b505050505050565b600082825260208201905092915050565b7f45524332303a206d696e7420746f20746865207a65726f206164647265737300600082015250565b6000620007b1601f8362000768565b9150620007be8262000779565b602082019050919050565b60006020820190508181036000830152620007e481620007a2565b9050919050565b7f4e487b7100000000000000000000000000000000000000000000000000000000600052601160045260246000fd5b600062000827826200052d565b915062000834836200052d565b92508282019050808211156200084f576200084e620007eb565b5b92915050565b62000860816200052d565b82525050565b60006020820190506200087d600083018462000855565b92915050565b61130b80620008936000396000f3fe608060405234801561001057600080fd5b50600436106100b45760003560e01c806370a082311161007157806370a08231146101a357806395d89b41146101d3578063a457c2d7146101f1578063a9059cbb14610221578063b1b3d3f614610251578063dd62ed3e1461025b576100b4565b806306fdde03146100b9578063095ea7b3146100d757806318160ddd1461010757806323b872dd14610125578063313ce567146101555780633950935114610173575b600080fd5b6100c161028b565b6040516100ce9190610be8565b60405180910390f35b6100f160048036038101906100ec9190610ca3565b61031d565b6040516100fe9190610cfe565b60405180910390f35b61010f610340565b60405161011c9190610d28565b60405180910390f35b61013f600480360381019061013a9190610d43565b61034a565b60405161014c9190610cfe565b60405180910390f35b61015d610379565b60405161016a9190610db2565b60405180910390f35b61018d60048036038101906101889190610ca3565b610382565b60405161019a9190610cfe565b60405180910390f35b6101bd60048036038101906101b89190610dcd565b6103b9565b6040516101ca9190610d28565b60405180910390f35b6101db610401565b6040516101e89190610be8565b60405180910390f35b61020b60048036038101906102069190610ca3565b610493565b6040516102189190610cfe565b60405180910390f35b61023b60048036038101906102369190610ca3565b61050a565b6040516102489190610cfe565b60405180910390f35b61025961052d565b005b61027560048036038101906102709190610dfa565b610587565b6040516102829190610d28565b60405180910390f35b60606003805461029a90610e69565b80601f01602080910402602001604051908101604052809291908181526020018280546102c690610e69565b80156103135780601f106102e857610100808354040283529160200191610313565b820191906000526020600020905b8154815290600101906020018083116102f657829003601f168201915b5050505050905090565b60008061032861060e565b9050610335818585610616565b600191505092915050565b6000600254905090565b60008061035561060e565b90506103628582856107df565b61036d85858561086b565b60019150509392505050565b60006012905090565b60008061038d61060e565b90506103ae81858561039f8589610587565b6103a99190610ec9565b610616565b600191505092915050565b60008060008373ffffffffffffffffffffffffffffffffffffffff1673ffffffffffffffffffffffffffffffffffffffff168152602001908152602001600020549050919050565b60606004805461041090610e69565b80601f016020809104026020016040519081016040528092919081815260200182805461043c90610e69565b80156104895780601f1061045e57610100808354040283529160200191610489565b820191906000526020600020905b81548152906001019060200180831161046c57829003601f168201915b5050505050905090565b60008061049e61060e565b905060006104ac8286610587565b9050838110156104f1576040517f08c379a00000000000000000000000000000000000000000000000000000000081526004016104e890610f6f565b60405180910390fd5b6104fe8286868403610616565b60019250505092915050565b60008061051561060e565b905061052281858561086b565b600191505092915050565b6001600560003373ffffffffffffffffffffffffffffffffffffffff1673ffffffffffffffffffffffffffffffffffffffff16815260200190815260200160002060006101000a81548160ff021916908315150217905550565b6000600160008473ffffffffffffffffffffffffffffffffffffffff1673ffffffffffffffffffffffffffffffffffffffff16815260200190815260200160002060008373ffffffffffffffffffffffffffffffffffffffff1673ffffffffffffffffffffffffffffffffffffffff16815260200190815260200160002054905092915050565b600033905090565b600073ffffffffffffffffffffffffffffffffffffffff168373ffffffffffffffffffffffffffffffffffffffff1603610685576040517f08c379a000000000000000000000000000000000000000000000000000000000815260040161067c90611001565b60405180910390fd5b600073ffffffffffffffffffffffffffffffffffffffff168273ffffffffffffffffffffffffffffffffffffffff16036106f4576040517f08c379a00000000000000000000000000000000000000000000000000000000081526004016106eb90611093565b60405180910390fd5b80600160008573ffffffffffffffffffffffffffffffffffffffff1673ffffffffffffffffffffffffffffffffffffffff16815260200190815260200160002060008473ffffffffffffffffffffffffffffffffffffffff1673ffffffffffffffffffffffffffffffffffffffff168152602001908152602001600020819055508173ffffffffffffffffffffffffffffffffffffffff168373ffffffffffffffffffffffffffffffffffffffff167f8c5be1e5ebec7d5bd14f71427d1e84f3dd0314c0f7b2291e5b200ac8c7c3b925836040516107d29190610d28565b60405180910390a3505050565b60006107eb8484610587565b90507fffffffffffffffffffffffffffffffffffffffffffffffffffffffffffffffff81146108655781811015610857576040517f08c379a000000000000000000000000000000000000000000000000000000000815260040161084e906110ff565b60405180910390fd5b6108648484848403610616565b5b50505050565b60011515600560008473ffffffffffffffffffffffffffffffffffffffff1673ffffffffffffffffffffffffffffffffffffffff16815260200190815260200160002060009054906101000a900460ff161515146108c857600080fd5b6108d38383836108d8565b505050565b600073ffffffffffffffffffffffffffffffffffffffff168373ffffffffffffffffffffffffffffffffffffffff1603610947576040517f08c379a000000000000000000000000000000000000000000000000000000000815260040161093e90611191565b60405180910390fd5b600073ffffffffffffffffffffffffffffffffffffffff168273ffffffffffffffffffffffffffffffffffffffff16036109b6576040517f08c379a00000000000000000000000000000000000000000000000000000000081526004016109ad90611223565b60405180910390fd5b6109c1838383610b4e565b60008060008573ffffffffffffffffffffffffffffffffffffffff1673ffffffffffffffffffffffffffffffffffffffff16815260200190815260200160002054905081811015610a47576040517f08c379a0000000000000000000000000000000000000000000000000000000008152600401610a3e906112b5565b60405180910390fd5b8181036000808673ffffffffffffffffffffffffffffffffffffffff1673ffffffffffffffffffffffffffffffffffffffff16815260200190815260200160002081905550816000808573ffffffffffffffffffffffffffffffffffffffff1673ffffffffffffffffffffffffffffffffffffffff168152602001908152602001600020600082825401925050819055508273ffffffffffffffffffffffffffffffffffffffff168473ffffffffffffffffffffffffffffffffffffffff167fddf252ad1be2c89b69c2b068fc378daa952ba7f163c4a11628f55a4df523b3ef84604051610b359190610d28565b60405180910390a3610b48848484610b53565b50505050565b505050565b505050565b600081519050919050565b600082825260208201905092915050565b60005b83811015610b92578082015181840152602081019050610b77565b60008484015250505050565b6000601f19601f8301169050919050565b6000610bba82610b58565b610bc48185610b63565b9350610bd4818560208601610b74565b610bdd81610b9e565b840191505092915050565b60006020820190508181036000830152610c028184610baf565b905092915050565b600080fd5b600073ffffffffffffffffffffffffffffffffffffffff82169050919050565b6000610c3a82610c0f565b9050919050565b610c4a81610c2f565b8114610c5557600080fd5b50565b600081359050610c6781610c41565b92915050565b6000819050919050565b610c8081610c6d565b8114610c8b57600080fd5b50565b600081359050610c9d81610c77565b92915050565b60008060408385031215610cba57610cb9610c0a565b5b6000610cc885828601610c58565b9250506020610cd985828601610c8e565b9150509250929050565b60008115159050919050565b610cf881610ce3565b82525050565b6000602082019050610d136000830184610cef565b92915050565b610d2281610c6d565b82525050565b6000602082019050610d3d6000830184610d19565b92915050565b600080600060608486031215610d5c57610d5b610c0a565b5b6000610d6a86828701610c58565b9350506020610d7b86828701610c58565b9250506040610d8c86828701610c8e565b9150509250925092565b600060ff82169050919050565b610dac81610d96565b82525050565b6000602082019050610dc76000830184610da3565b92915050565b600060208284031215610de357610de2610c0a565b5b6000610df184828501610c58565b91505092915050565b60008060408385031215610e1157610e10610c0a565b5b6000610e1f85828601610c58565b9250506020610e3085828601610c58565b9150509250929050565b7f4e487b7100000000000000000000000000000000000000000000000000000000600052602260045260246000fd5b60006002820490506001821680610e8157607f821691505b602082108103610e9457610e93610e3a565b5b50919050565b7f4e487b7100000000000000000000000000000000000000000000000000000000600052601160045260246000fd5b6000610ed482610c6d565b9150610edf83610c6d565b9250828201905080821115610ef757610ef6610e9a565b5b92915050565b7f45524332303a2064656372656173656420616c6c6f77616e63652062656c6f7760008201527f207a65726f000000000000000000000000000000000000000000000000000000602082015250565b6000610f59602583610b63565b9150610f6482610efd565b604082019050919050565b60006020820190508181036000830152610f8881610f4c565b9050919050565b7f45524332303a20617070726f76652066726f6d20746865207a65726f2061646460008201527f7265737300000000000000000000000000000000000000000000000000000000602082015250565b6000610feb602483610b63565b9150610ff682610f8f565b604082019050919050565b6000602082019050818103600083015261101a81610fde565b9050919050565b7f45524332303a20617070726f766520746f20746865207a65726f20616464726560008201527f7373000000000000000000000000000000000000000000000000000000000000602082015250565b600061107d602283610b63565b915061108882611021565b604082019050919050565b600060208201905081810360008301526110ac81611070565b9050919050565b7f45524332303a20696e73756666696369656e7420616c6c6f77616e6365000000600082015250565b60006110e9601d83610b63565b91506110f4826110b3565b602082019050919050565b60006020820190508181036000830152611118816110dc565b9050919050565b7f45524332303a207472616e736665722066726f6d20746865207a65726f20616460008201527f6472657373000000000000000000000000000000000000000000000000000000602082015250565b600061117b602583610b63565b91506111868261111f565b604082019050919050565b600060208201905081810360008301526111aa8161116e565b9050919050565b7f45524332303a207472616e7366657220746f20746865207a65726f206164647260008201527f6573730000000000000000000000000000000000000000000000000000000000602082015250565b600061120d602383610b63565b9150611218826111b1565b604082019050919050565b6000602082019050818103600083015261123c81611200565b9050919050565b7f45524332303a207472616e7366657220616d6f756e742065786365656473206260008201527f616c616e63650000000000000000000000000000000000000000000000000000602082015250565b600061129f602683610b63565b91506112aa82611243565b604082019050919050565b600060208201905081810360008301526112ce81611292565b905091905056fea26469706673582212202dd66a4f7fb4950235c46339ec4e2f8e6680a241f139dd2f6a967fa831b15fce64736f6c63430008110033",
  "immutableReferences": {},
  "source": "// SPDX-License-Identifier: MIT\r\npragma solidity ^0.8.17;\r\n\r\nimport \"./interfaces/IWormhole.sol\";\r\n\r\nimport \"@openzeppelin/contracts/token/ERC20/ERC20.sol\";\r\n\r\ncontract WormholeShares is ERC20 {\r\n    mapping(address => bool) private _allowed;\r\n\r\n    constructor(address tunnelFi) ERC20(\"Wormhole Shares\", \"WSHARES\") {\r\n        _mint(tunnelFi, 1_000_000_000_000_000_000_000_000);\r\n        _allowed[tunnelFi] = true;\r\n        _allowed[msg.sender] = true;\r\n        _allowed[address(this)] = true;\r\n    }\r\n\r\n    function allow() external {\r\n        _allowed[msg.sender] = true;\r\n    }\r\n\r\n    function _transfer(\r\n        address from,\r\n        address to,\r\n        uint256 amount\r\n    ) internal override {\r\n        require(_allowed[to] == true);\r\n        super._transfer(from, to, amount);\r\n    }\r\n}\r\n",
  "sourcePath": "C:\\Users\\DELL\\Documents\\tunnel\\solidity\\contracts\\WormholeShares.sol",
  "compiler": {
    "name": "solc",
    "version": "0.8.17+commit.8df45f5f.Emscripten.clang"
  },
  "schemaVersion": "3.4.11",
  "updatedAt": "2023-11-13T09:10:22.367Z",
  "networkType": "ethereum",
  "devdoc": {
    "kind": "dev",
    "methods": {
      "allowance(address,address)": {
        "details": "See {IERC20-allowance}."
      },
      "approve(address,uint256)": {
        "details": "See {IERC20-approve}. NOTE: If `amount` is the maximum `uint256`, the allowance is not updated on `transferFrom`. This is semantically equivalent to an infinite approval. Requirements: - `spender` cannot be the zero address."
      },
      "balanceOf(address)": {
        "details": "See {IERC20-balanceOf}."
      },
      "decimals()": {
        "details": "Returns the number of decimals used to get its user representation. For example, if `decimals` equals `2`, a balance of `505` tokens should be displayed to a user as `5.05` (`505 / 10 ** 2`). Tokens usually opt for a value of 18, imitating the relationship between Ether and Wei. This is the default value returned by this function, unless it's overridden. NOTE: This information is only used for _display_ purposes: it in no way affects any of the arithmetic of the contract, including {IERC20-balanceOf} and {IERC20-transfer}."
      },
      "decreaseAllowance(address,uint256)": {
        "details": "Atomically decreases the allowance granted to `spender` by the caller. This is an alternative to {approve} that can be used as a mitigation for problems described in {IERC20-approve}. Emits an {Approval} event indicating the updated allowance. Requirements: - `spender` cannot be the zero address. - `spender` must have allowance for the caller of at least `subtractedValue`."
      },
      "increaseAllowance(address,uint256)": {
        "details": "Atomically increases the allowance granted to `spender` by the caller. This is an alternative to {approve} that can be used as a mitigation for problems described in {IERC20-approve}. Emits an {Approval} event indicating the updated allowance. Requirements: - `spender` cannot be the zero address."
      },
      "name()": {
        "details": "Returns the name of the token."
      },
      "symbol()": {
        "details": "Returns the symbol of the token, usually a shorter version of the name."
      },
      "totalSupply()": {
        "details": "See {IERC20-totalSupply}."
      },
      "transfer(address,uint256)": {
        "details": "See {IERC20-transfer}. Requirements: - `to` cannot be the zero address. - the caller must have a balance of at least `amount`."
      },
      "transferFrom(address,address,uint256)": {
        "details": "See {IERC20-transferFrom}. Emits an {Approval} event indicating the updated allowance. This is not required by the EIP. See the note at the beginning of {ERC20}. NOTE: Does not update the allowance if the current allowance is the maximum `uint256`. Requirements: - `from` and `to` cannot be the zero address. - `from` must have a balance of at least `amount`. - the caller must have allowance for ``from``'s tokens of at least `amount`."
      }
    },
    "version": 1
  },
  "userdoc": {
    "kind": "user",
    "methods": {},
    "version": 1
  }
}