{
  "contractName": "Tunnel",
  "abi": [
    {
      "inputs": [
        {
          "internalType": "address",
          "name": "wormhole_",
          "type": "address"
        }
      ],
      "stateMutability": "nonpayable",
      "type": "constructor"
    },
    {
      "anonymous": false,
      "inputs": [
        {
          "indexed": false,
          "internalType": "address",
          "name": "evmAssetId",
          "type": "address"
        },
        {
          "indexed": false,
          "internalType": "uint256",
          "name": "algoAssetId",
          "type": "uint256"
        }
      ],
      "name": "AssetCreated",
      "type": "event"
    },
    {
      "anonymous": false,
      "inputs": [
        {
          "indexed": false,
          "internalType": "address",
          "name": "assetId",
          "type": "address"
        },
        {
          "indexed": false,
          "internalType": "uint256",
          "name": "amount",
          "type": "uint256"
        },
        {
          "indexed": false,
          "internalType": "address",
          "name": "evmWallet",
          "type": "address"
        },
        {
          "indexed": false,
          "internalType": "string",
          "name": "algoWallet",
          "type": "string"
        },
        {
          "indexed": false,
          "internalType": "uint256",
          "name": "timestamp",
          "type": "uint256"
        }
      ],
      "name": "AssetLocked",
      "type": "event"
    },
    {
      "anonymous": false,
      "inputs": [
        {
          "indexed": false,
          "internalType": "address",
          "name": "assetId",
          "type": "address"
        },
        {
          "indexed": false,
          "internalType": "uint256",
          "name": "amount",
          "type": "uint256"
        },
        {
          "indexed": false,
          "internalType": "string",
          "name": "algoWallet",
          "type": "string"
        },
        {
          "indexed": false,
          "internalType": "address",
          "name": "evmWallet",
          "type": "address"
        },
        {
          "indexed": false,
          "internalType": "uint256",
          "name": "timestamp",
          "type": "uint256"
        }
      ],
      "name": "AssetReleased",
      "type": "event"
    },
    {
      "anonymous": false,
      "inputs": [
        {
          "indexed": false,
          "internalType": "address",
          "name": "evmWallet",
          "type": "address"
        },
        {
          "indexed": false,
          "internalType": "uint256",
          "name": "amount",
          "type": "uint256"
        }
      ],
      "name": "FaucetDispensed",
      "type": "event"
    },
    {
      "anonymous": false,
      "inputs": [
        {
          "indexed": false,
          "internalType": "address",
          "name": "evmWallet",
          "type": "address"
        },
        {
          "indexed": false,
          "internalType": "string",
          "name": "algoWallet",
          "type": "string"
        }
      ],
      "name": "WalletCreated",
      "type": "event"
    },
    {
      "stateMutability": "payable",
      "type": "receive",
      "payable": true
    },
    {
      "inputs": [
        {
          "internalType": "address",
          "name": "assetId",
          "type": "address"
        },
        {
          "internalType": "uint256",
          "name": "amount",
          "type": "uint256"
        }
      ],
      "name": "faucet",
      "outputs": [],
      "stateMutability": "nonpayable",
      "type": "function"
    },
    {
      "inputs": [
        {
          "internalType": "address",
          "name": "evmAssetId",
          "type": "address"
        },
        {
          "internalType": "uint256",
          "name": "algoAssetId",
          "type": "uint256"
        }
      ],
      "name": "createAsset",
      "outputs": [],
      "stateMutability": "nonpayable",
      "type": "function"
    },
    {
      "inputs": [
        {
          "internalType": "string",
          "name": "algoWallet",
          "type": "string"
        }
      ],
      "name": "createWallet",
      "outputs": [],
      "stateMutability": "nonpayable",
      "type": "function"
    },
    {
      "inputs": [
        {
          "internalType": "address",
          "name": "evmWallet",
          "type": "address"
        }
      ],
      "name": "getAlgoWallet",
      "outputs": [
        {
          "internalType": "string",
          "name": "",
          "type": "string"
        }
      ],
      "stateMutability": "view",
      "type": "function",
      "constant": true
    },
    {
      "inputs": [
        {
          "internalType": "string",
          "name": "algoWallet",
          "type": "string"
        }
      ],
      "name": "getEVMWallet",
      "outputs": [
        {
          "internalType": "address",
          "name": "",
          "type": "address"
        }
      ],
      "stateMutability": "view",
      "type": "function",
      "constant": true
    },
    {
      "inputs": [],
      "name": "messageFee",
      "outputs": [
        {
          "internalType": "uint256",
          "name": "",
          "type": "uint256"
        }
      ],
      "stateMutability": "view",
      "type": "function",
      "constant": true
    },
    {
      "inputs": [
        {
          "internalType": "address",
          "name": "assetId",
          "type": "address"
        },
        {
          "internalType": "uint256",
          "name": "amount",
          "type": "uint256"
        }
      ],
      "name": "bridge",
      "outputs": [],
      "stateMutability": "payable",
      "type": "function",
      "payable": true
    },
    {
      "inputs": [
        {
          "internalType": "uint32",
          "name": "nonce",
          "type": "uint32"
        },
        {
          "internalType": "uint256",
          "name": "algoAssetId",
          "type": "uint256"
        },
        {
          "internalType": "uint256",
          "name": "amount",
          "type": "uint256"
        },
        {
          "internalType": "string",
          "name": "algoWallet",
          "type": "string"
        }
      ],
      "name": "receiveMessage",
      "outputs": [],
      "stateMutability": "nonpayable",
      "type": "function"
    }
  ],
  "bytecode": "0x608060405260c8600760006101000a81548160ff021916908360ff1602179055503480156200002d57600080fd5b5060405162001ef938038062001ef9833981810160405281019062000053919062000104565b806000806101000a81548173ffffffffffffffffffffffffffffffffffffffff021916908373ffffffffffffffffffffffffffffffffffffffff1602179055505062000136565b600080fd5b600073ffffffffffffffffffffffffffffffffffffffff82169050919050565b6000620000cc826200009f565b9050919050565b620000de81620000bf565b8114620000ea57600080fd5b50565b600081519050620000fe81620000d3565b92915050565b6000602082840312156200011d576200011c6200009a565b5b60006200012d84828501620000ed565b91505092915050565b611db380620001466000396000f3fe60806040526004361061007f5760003560e01c80637b56c2b21161004e5780637b56c2b2146101455780639589df4b1461016e578063c3de453d146101ab578063db136b1e146101c757610086565b80631a90a2191461008b5780633d415459146100b657806347510765146100df5780637404f1d21461011c57610086565b3661008657005b600080fd5b34801561009757600080fd5b506100a06101f0565b6040516100ad9190610eb0565b60405180910390f35b3480156100c257600080fd5b506100dd60048036038101906100d8919061108d565b610287565b005b3480156100eb57600080fd5b506101066004803603810190610101919061116e565b610594565b604051610113919061121a565b60405180910390f35b34801561012857600080fd5b50610143600480360381019061013e919061123c565b610665565b005b34801561015157600080fd5b5061016c60048036038101906101679190611285565b610893565b005b34801561017a57600080fd5b506101956004803603810190610190919061123c565b610962565b6040516101a291906112d4565b60405180910390f35b6101c560048036038101906101c09190611285565b6109aa565b005b3480156101d357600080fd5b506101ee60048036038101906101e99190611285565b610d88565b005b60008060009054906101000a900473ffffffffffffffffffffffffffffffffffffffff1673ffffffffffffffffffffffffffffffffffffffff16631a90a2196040518163ffffffff1660e01b8152600401602060405180830381865afa15801561025e573d6000803e3d6000fd5b505050506040513d601f19601f820116820180604052508101906102829190611304565b905090565b600160008563ffffffff1663ffffffff16815260200190815260200160002060009054906101000a900460ff16156102f4576040517f08c379a00000000000000000000000000000000000000000000000000000000081526004016102eb9061137d565b60405180910390fd5b60018060008663ffffffff1663ffffffff16815260200190815260200160002060006101000a81548160ff021916908315150217905550600073ffffffffffffffffffffffffffffffffffffffff1660028260405161035391906113d9565b908152602001604051809103902060009054906101000a900473ffffffffffffffffffffffffffffffffffffffff1673ffffffffffffffffffffffffffffffffffffffff16036103d8576040517f08c379a00000000000000000000000000000000000000000000000000000000081526004016103cf9061143c565b60405180910390fd5b60006004600085815260200190815260200160002060009054906101000a900473ffffffffffffffffffffffffffffffffffffffff1690508073ffffffffffffffffffffffffffffffffffffffff1663a9059cbb60028460405161043c91906113d9565b908152602001604051809103902060009054906101000a900473ffffffffffffffffffffffffffffffffffffffff1661047486610e5b565b6040518363ffffffff1660e01b815260040161049192919061145c565b6020604051808303816000875af11580156104b0573d6000803e3d6000fd5b505050506040513d601f19601f820116820180604052508101906104d491906114bd565b507f88fd71e9ed0824e97db956e42d915db1f2c7e649e01be56b64994a59c55c87856004600086815260200190815260200160002060009054906101000a900473ffffffffffffffffffffffffffffffffffffffff1661053385610e5b565b8460028660405161054491906113d9565b908152602001604051809103902060009054906101000a900473ffffffffffffffffffffffffffffffffffffffff16426040516105859594939291906114ea565b60405180910390a15050505050565b6060600360008373ffffffffffffffffffffffffffffffffffffffff1673ffffffffffffffffffffffffffffffffffffffff16815260200190815260200160002080546105e090611573565b80601f016020809104026020016040519081016040528092919081815260200182805461060c90611573565b80156106595780601f1061062e57610100808354040283529160200191610659565b820191906000526020600020905b81548152906001019060200180831161063c57829003601f168201915b50505050509050919050565b600061066f610e75565b90506000600360008373ffffffffffffffffffffffffffffffffffffffff1673ffffffffffffffffffffffffffffffffffffffff16815260200190815260200160002080546106bd90611573565b9050146106ff576040517f08c379a00000000000000000000000000000000000000000000000000000000081526004016106f6906115f0565b60405180910390fd5b600073ffffffffffffffffffffffffffffffffffffffff1660028360405161072791906113d9565b908152602001604051809103902060009054906101000a900473ffffffffffffffffffffffffffffffffffffffff1673ffffffffffffffffffffffffffffffffffffffff16146107ac576040517f08c379a00000000000000000000000000000000000000000000000000000000081526004016107a39061165c565b60405180910390fd5b81600360008373ffffffffffffffffffffffffffffffffffffffff1673ffffffffffffffffffffffffffffffffffffffff16815260200190815260200160002090816107f89190611828565b508060028360405161080a91906113d9565b908152602001604051809103902060006101000a81548173ffffffffffffffffffffffffffffffffffffffff021916908373ffffffffffffffffffffffffffffffffffffffff1602179055507f03768bb3a703b01cc4c51e2f46596839eef3bdfc4d1dc810c789e342d2f405a781836040516108879291906118fa565b60405180910390a15050565b600061089d610e75565b905060008390508073ffffffffffffffffffffffffffffffffffffffff1663a9059cbb83856040518363ffffffff1660e01b81526004016108df92919061145c565b6020604051808303816000875af11580156108fe573d6000803e3d6000fd5b505050506040513d601f19601f8201168201806040525081019061092291906114bd565b507f4ccc2cb57d301275bff907df4fcc7431ca6cef9083f95cdc1098086c2360e29a828460405161095492919061145c565b60405180910390a150505050565b600060028260405161097491906113d9565b908152602001604051809103902060009054906101000a900473ffffffffffffffffffffffffffffffffffffffff169050919050565b60006109b4610e75565b90506000600560008573ffffffffffffffffffffffffffffffffffffffff1673ffffffffffffffffffffffffffffffffffffffff1681526020019081526020016000205403610a38576040517f08c379a0000000000000000000000000000000000000000000000000000000008152600401610a2f90611976565b60405180910390fd5b6000600360008373ffffffffffffffffffffffffffffffffffffffff1673ffffffffffffffffffffffffffffffffffffffff1681526020019081526020016000208054610a8490611573565b905003610ac6576040517f08c379a0000000000000000000000000000000000000000000000000000000008152600401610abd906119e2565b60405180910390fd5b60008390508073ffffffffffffffffffffffffffffffffffffffff166323b872dd8330866040518463ffffffff1660e01b8152600401610b0893929190611a02565b6020604051808303816000875af1158015610b27573d6000803e3d6000fd5b505050506040513d601f19601f82011682018060405250810190610b4b91906114bd565b506000600560008673ffffffffffffffffffffffffffffffffffffffff1673ffffffffffffffffffffffffffffffffffffffff16815260200190815260200160002054610b9785610e7d565b600360008673ffffffffffffffffffffffffffffffffffffffff1673ffffffffffffffffffffffffffffffffffffffff168152602001908152602001600020604051602001610be893929190611abd565b604051602081830303815290604052905060008054906101000a900473ffffffffffffffffffffffffffffffffffffffff1673ffffffffffffffffffffffffffffffffffffffff1663b19a437e610c3d6101f0565b600060149054906101000a900463ffffffff1684600760009054906101000a900460ff166040518563ffffffff1660e01b8152600401610c7f93929190611b7b565b60206040518083038185885af1158015610c9d573d6000803e3d6000fd5b50505050506040513d601f19601f82011682018060405250810190610cc29190611bf9565b506000601481819054906101000a900463ffffffff1680929190610ce590611c55565b91906101000a81548163ffffffff021916908363ffffffff160217905550507f09cab9f554907f684de7717a97eebb69cf49f71182f2e2b17d439e7bf1489b0e858585600360008873ffffffffffffffffffffffffffffffffffffffff1673ffffffffffffffffffffffffffffffffffffffff16815260200190815260200160002042604051610d79959493929190611c81565b60405180910390a15050505050565b816004600083815260200190815260200160002060006101000a81548173ffffffffffffffffffffffffffffffffffffffff021916908373ffffffffffffffffffffffffffffffffffffffff16021790555080600560008473ffffffffffffffffffffffffffffffffffffffff1673ffffffffffffffffffffffffffffffffffffffff168152602001908152602001600020819055507f20df459a0f7f1bc64a42346a9e6536111a3512be01de7a0f5327a4e13b3370388282604051610e4f92919061145c565b60405180910390a15050565b600064e8d4a5100082610e6e9190611cdb565b9050919050565b600033905090565b600064e8d4a5100082610e909190611d4c565b9050919050565b6000819050919050565b610eaa81610e97565b82525050565b6000602082019050610ec56000830184610ea1565b92915050565b6000604051905090565b600080fd5b600080fd5b600063ffffffff82169050919050565b610ef881610edf565b8114610f0357600080fd5b50565b600081359050610f1581610eef565b92915050565b610f2481610e97565b8114610f2f57600080fd5b50565b600081359050610f4181610f1b565b92915050565b600080fd5b600080fd5b6000601f19601f8301169050919050565b7f4e487b7100000000000000000000000000000000000000000000000000000000600052604160045260246000fd5b610f9a82610f51565b810181811067ffffffffffffffff82111715610fb957610fb8610f62565b5b80604052505050565b6000610fcc610ecb565b9050610fd88282610f91565b919050565b600067ffffffffffffffff821115610ff857610ff7610f62565b5b61100182610f51565b9050602081019050919050565b82818337600083830152505050565b600061103061102b84610fdd565b610fc2565b90508281526020810184848401111561104c5761104b610f4c565b5b61105784828561100e565b509392505050565b600082601f83011261107457611073610f47565b5b813561108484826020860161101d565b91505092915050565b600080600080608085870312156110a7576110a6610ed5565b5b60006110b587828801610f06565b94505060206110c687828801610f32565b93505060406110d787828801610f32565b925050606085013567ffffffffffffffff8111156110f8576110f7610eda565b5b6111048782880161105f565b91505092959194509250565b600073ffffffffffffffffffffffffffffffffffffffff82169050919050565b600061113b82611110565b9050919050565b61114b81611130565b811461115657600080fd5b50565b60008135905061116881611142565b92915050565b60006020828403121561118457611183610ed5565b5b600061119284828501611159565b91505092915050565b600081519050919050565b600082825260208201905092915050565b60005b838110156111d55780820151818401526020810190506111ba565b60008484015250505050565b60006111ec8261119b565b6111f681856111a6565b93506112068185602086016111b7565b61120f81610f51565b840191505092915050565b6000602082019050818103600083015261123481846111e1565b905092915050565b60006020828403121561125257611251610ed5565b5b600082013567ffffffffffffffff8111156112705761126f610eda565b5b61127c8482850161105f565b91505092915050565b6000806040838503121561129c5761129b610ed5565b5b60006112aa85828601611159565b92505060206112bb85828601610f32565b9150509250929050565b6112ce81611130565b82525050565b60006020820190506112e960008301846112c5565b92915050565b6000815190506112fe81610f1b565b92915050565b60006020828403121561131a57611319610ed5565b5b6000611328848285016112ef565b91505092915050565b7f4d65737361676520616c72656164792070726f63657373656400000000000000600082015250565b60006113676019836111a6565b915061137282611331565b602082019050919050565b600060208201905081810360008301526113968161135a565b9050919050565b600081905092915050565b60006113b38261119b565b6113bd818561139d565b93506113cd8185602086016111b7565b80840191505092915050565b60006113e582846113a8565b915081905092915050565b7f45766d2061646472657373206e6f742073657400000000000000000000000000600082015250565b60006114266013836111a6565b9150611431826113f0565b602082019050919050565b6000602082019050818103600083015261145581611419565b9050919050565b600060408201905061147160008301856112c5565b61147e6020830184610ea1565b9392505050565b60008115159050919050565b61149a81611485565b81146114a557600080fd5b50565b6000815190506114b781611491565b92915050565b6000602082840312156114d3576114d2610ed5565b5b60006114e1848285016114a8565b91505092915050565b600060a0820190506114ff60008301886112c5565b61150c6020830187610ea1565b818103604083015261151e81866111e1565b905061152d60608301856112c5565b61153a6080830184610ea1565b9695505050505050565b7f4e487b7100000000000000000000000000000000000000000000000000000000600052602260045260246000fd5b6000600282049050600182168061158b57607f821691505b60208210810361159e5761159d611544565b5b50919050565b7f416c676f206164647265737320616c7265616479207573656400000000000000600082015250565b60006115da6019836111a6565b91506115e5826115a4565b602082019050919050565b60006020820190508181036000830152611609816115cd565b9050919050565b7f45766d2077616c6c657420616c72656164792075736564000000000000000000600082015250565b60006116466017836111a6565b915061165182611610565b602082019050919050565b6000602082019050818103600083015261167581611639565b9050919050565b60008190508160005260206000209050919050565b60006020601f8301049050919050565b600082821b905092915050565b6000600883026116de7fffffffffffffffffffffffffffffffffffffffffffffffffffffffffffffffff826116a1565b6116e886836116a1565b95508019841693508086168417925050509392505050565b6000819050919050565b600061172561172061171b84610e97565b611700565b610e97565b9050919050565b6000819050919050565b61173f8361170a565b61175361174b8261172c565b8484546116ae565b825550505050565b600090565b61176861175b565b611773818484611736565b505050565b5b818110156117975761178c600082611760565b600181019050611779565b5050565b601f8211156117dc576117ad8161167c565b6117b684611691565b810160208510156117c5578190505b6117d96117d185611691565b830182611778565b50505b505050565b600082821c905092915050565b60006117ff600019846008026117e1565b1980831691505092915050565b600061181883836117ee565b9150826002028217905092915050565b6118318261119b565b67ffffffffffffffff81111561184a57611849610f62565b5b6118548254611573565b61185f82828561179b565b600060209050601f8311600181146118925760008415611880578287015190505b61188a858261180c565b8655506118f2565b601f1984166118a08661167c565b60005b828110156118c8578489015182556001820191506020850194506020810190506118a3565b868310156118e557848901516118e1601f8916826117ee565b8355505b6001600288020188555050505b505050505050565b600060408201905061190f60008301856112c5565b818103602083015261192181846111e1565b90509392505050565b7f416c676f206173736574206e6f74207365740000000000000000000000000000600082015250565b60006119606012836111a6565b915061196b8261192a565b602082019050919050565b6000602082019050818103600083015261198f81611953565b9050919050565b7f416c676f2061646472657373206e6f7420736574000000000000000000000000600082015250565b60006119cc6014836111a6565b91506119d782611996565b602082019050919050565b600060208201905081810360008301526119fb816119bf565b9050919050565b6000606082019050611a1760008301866112c5565b611a2460208301856112c5565b611a316040830184610ea1565b949350505050565b60008154611a4681611573565b611a5081866111a6565b94506001821660008114611a6b5760018114611a8157611ab4565b60ff198316865281151560200286019350611ab4565b611a8a8561167c565b60005b83811015611aac57815481890152600182019150602081019050611a8d565b808801955050505b50505092915050565b6000606082019050611ad26000830186610ea1565b611adf6020830185610ea1565b8181036040830152611af18184611a39565b9050949350505050565b611b0481610edf565b82525050565b600081519050919050565b600082825260208201905092915050565b6000611b3182611b0a565b611b3b8185611b15565b9350611b4b8185602086016111b7565b611b5481610f51565b840191505092915050565b600060ff82169050919050565b611b7581611b5f565b82525050565b6000606082019050611b906000830186611afb565b8181036020830152611ba28185611b26565b9050611bb16040830184611b6c565b949350505050565b600067ffffffffffffffff82169050919050565b611bd681611bb9565b8114611be157600080fd5b50565b600081519050611bf381611bcd565b92915050565b600060208284031215611c0f57611c0e610ed5565b5b6000611c1d84828501611be4565b91505092915050565b7f4e487b7100000000000000000000000000000000000000000000000000000000600052601160045260246000fd5b6000611c6082610edf565b915063ffffffff8203611c7657611c75611c26565b5b600182019050919050565b600060a082019050611c9660008301886112c5565b611ca36020830187610ea1565b611cb060408301866112c5565b8181036060830152611cc28185611a39565b9050611cd16080830184610ea1565b9695505050505050565b6000611ce682610e97565b9150611cf183610e97565b9250828202611cff81610e97565b91508282048414831517611d1657611d15611c26565b5b5092915050565b7f4e487b7100000000000000000000000000000000000000000000000000000000600052601260045260246000fd5b6000611d5782610e97565b9150611d6283610e97565b925082611d7257611d71611d1d565b5b82820490509291505056fea2646970667358221220cc1d265b306c053bb91097c14fc085bb831b1ee0cb2a320e859ebf2e350af63464736f6c63430008110033",
  "immutableReferences": {},
  "source": "// SPDX-License-Identifier: MIT\r\npragma solidity ^0.8.17;\r\n\r\nimport \"./interfaces/IWormhole.sol\";\r\n\r\nimport \"./interfaces/IERC3643.sol\";\r\nimport \"@openzeppelin/contracts/utils/Context.sol\";\r\n\r\ncontract Tunnel is Context {\r\n    IWormhole private _wormhole;\r\n\r\n    uint32 private _nonce;\r\n\r\n    mapping(uint32 => bool) private _delivered;\r\n\r\n    mapping(string => address) private _evmWallet;\r\n    mapping(address => string) private _algoWallet;\r\n\r\n    mapping(uint256 => address) private _evmAsset;\r\n    mapping(address => uint256) private _algoAsset;\r\n\r\n    uint256 private GAS_LIMIT;\r\n    uint8 private CONSISTENCY_LEVEL = 200;\r\n\r\n    event AssetLocked(\r\n        address assetId,\r\n        uint256 amount,\r\n        address evmWallet,\r\n        string algoWallet,\r\n        uint256 timestamp\r\n    );\r\n\r\n    event AssetReleased(\r\n        address assetId,\r\n        uint256 amount,\r\n        string algoWallet,\r\n        address evmWallet,\r\n        uint256 timestamp\r\n    );\r\n\r\n    event WalletCreated(address evmWallet, string algoWallet);\r\n\r\n    event AssetCreated(address evmAssetId, uint256 algoAssetId);\r\n\r\n    event FaucetDispensed(address evmWallet, uint256 amount);\r\n\r\n    constructor(address wormhole_) {\r\n        _wormhole = IWormhole(wormhole_);\r\n    }\r\n\r\n    function faucet(address assetId, uint256 amount) external {\r\n        address evmWallet = _msgSender();\r\n\r\n        IERC3643 asset = IERC3643(assetId);\r\n        asset.transfer(evmWallet, amount);\r\n\r\n        emit FaucetDispensed(evmWallet, amount);\r\n    }\r\n\r\n    function createAsset(address evmAssetId, uint256 algoAssetId) external {\r\n        _evmAsset[algoAssetId] = evmAssetId;\r\n        _algoAsset[evmAssetId] = algoAssetId;\r\n\r\n        emit AssetCreated(evmAssetId, algoAssetId);\r\n    }\r\n\r\n    function createWallet(string memory algoWallet) external {\r\n        address evmWallet = _msgSender();\r\n\r\n        require(\r\n            bytes(_algoWallet[evmWallet]).length == 0,\r\n            \"Algo address already used\"\r\n        );\r\n\r\n        require(\r\n            _evmWallet[algoWallet] == address(0),\r\n            \"Evm wallet already used\"\r\n        );\r\n\r\n        _algoWallet[evmWallet] = algoWallet;\r\n        _evmWallet[algoWallet] = evmWallet;\r\n\r\n        emit WalletCreated(evmWallet, algoWallet);\r\n    }\r\n\r\n    /// @dev For corresponding algo wallet\r\n    function getAlgoWallet(\r\n        address evmWallet\r\n    ) external view returns (string memory) {\r\n        return _algoWallet[evmWallet];\r\n    }\r\n\r\n    /// @dev For corresponding evm wallet\r\n    function getEVMWallet(\r\n        string memory algoWallet\r\n    ) external view returns (address) {\r\n        return _evmWallet[algoWallet];\r\n    }\r\n\r\n    /// @dev For getting briging fee\r\n    function messageFee() public view returns (uint256) {\r\n        return _wormhole.messageFee();\r\n    }\r\n\r\n    /// @dev This function locks the Original NFT\r\n    /// and tell whirlExtension Contract to mint a new similar NFT\r\n    function bridge(address assetId, uint256 amount) external payable {\r\n        address evmWallet = _msgSender();\r\n\r\n        require(_algoAsset[assetId] != uint256(0), \"Algo asset not set\");\r\n        require(\r\n            bytes(_algoWallet[evmWallet]).length != 0,\r\n            \"Algo address not set\"\r\n        );\r\n\r\n        IERC3643 asset = IERC3643(assetId);\r\n        asset.transferFrom(evmWallet, address(this), amount);\r\n\r\n        bytes memory payload = abi.encode(\r\n            _algoAsset[assetId],\r\n            _algoAmount(amount),\r\n            _algoWallet[evmWallet]\r\n        );\r\n\r\n        _wormhole.publishMessage{value: messageFee()}(\r\n            _nonce,\r\n            payload,\r\n            CONSISTENCY_LEVEL\r\n        );\r\n\r\n        _nonce++;\r\n\r\n        emit AssetLocked(\r\n            assetId,\r\n            amount,\r\n            evmWallet,\r\n            _algoWallet[evmWallet],\r\n            block.timestamp\r\n        );\r\n    }\r\n\r\n    // @dev This function unlocks the Original asset to the\r\n    function receiveMessage(\r\n        uint32 nonce,\r\n        uint256 algoAssetId,\r\n        uint256 amount, // in micro-algo format\r\n        string memory algoWallet\r\n    ) external {\r\n        // Ensure no duplicate deliveries\r\n        require(!_delivered[nonce], \"Message already processed\");\r\n        _delivered[nonce] = true;\r\n\r\n        require(_evmWallet[algoWallet] != address(0), \"Evm address not set\");\r\n\r\n        IERC3643 asset = IERC3643(_evmAsset[algoAssetId]);\r\n        asset.transfer(_evmWallet[algoWallet], _evmAmount(amount));\r\n\r\n        emit AssetReleased(\r\n            _evmAsset[algoAssetId],\r\n            _evmAmount(amount),\r\n            algoWallet,\r\n            _evmWallet[algoWallet],\r\n            block.timestamp\r\n        );\r\n    }\r\n\r\n    function _evmAmount(uint256 algoAmmount) private pure returns (uint256) {\r\n        return algoAmmount * 1_000_000_000_000;\r\n    }\r\n\r\n    function _algoAmount(uint256 evmAmount) private pure returns (uint256) {\r\n        return evmAmount / 1_000_000_000_000;\r\n    }\r\n\r\n    receive() external payable {}\r\n}\r\n",
  "sourcePath": "C:\\Users\\DELL\\Documents\\tunnel\\solidity\\contracts\\Tunnel.sol",
  "compiler": {
    "name": "solc",
    "version": "0.8.17+commit.8df45f5f.Emscripten.clang"
  },
  "schemaVersion": "3.4.11",
  "updatedAt": "2023-11-07T21:18:55.948Z",
  "networkType": "ethereum",
  "devdoc": {
    "kind": "dev",
    "methods": {
      "bridge(address,uint256)": {
        "details": "This function locks the Original NFT and tell whirlExtension Contract to mint a new similar NFT"
      },
      "getAlgoWallet(address)": {
        "details": "For corresponding algo wallet"
      },
      "getEVMWallet(string)": {
        "details": "For corresponding evm wallet"
      },
      "messageFee()": {
        "details": "For getting briging fee"
      }
    },
    "version": 1
  },
  "userdoc": {
    "kind": "user",
    "methods": {},
    "version": 1
  }
}