{
    "contractName": "Tunnel",
    "abi": [
        {
            "inputs": [
                {
                    "internalType": "address",
                    "name": "wormhole_",
                    "type": "address"
                }
            ],
            "stateMutability": "nonpayable",
            "type": "constructor"
        },
        {
            "anonymous": false,
            "inputs": [
                {
                    "indexed": false,
                    "internalType": "address",
                    "name": "evmAssetId",
                    "type": "address"
                },
                {
                    "indexed": false,
                    "internalType": "uint256",
                    "name": "algoAssetId",
                    "type": "uint256"
                }
            ],
            "name": "AssetCreated",
            "type": "event"
        },
        {
            "anonymous": false,
            "inputs": [
                {
                    "indexed": false,
                    "internalType": "address",
                    "name": "assetId",
                    "type": "address"
                },
                {
                    "indexed": false,
                    "internalType": "uint256",
                    "name": "amount",
                    "type": "uint256"
                },
                {
                    "indexed": false,
                    "internalType": "address",
                    "name": "evmWallet",
                    "type": "address"
                },
                {
                    "indexed": false,
                    "internalType": "string",
                    "name": "algoWallet",
                    "type": "string"
                },
                {
                    "indexed": false,
                    "internalType": "uint256",
                    "name": "timestamp",
                    "type": "uint256"
                }
            ],
            "name": "AssetLocked",
            "type": "event"
        },
        {
            "anonymous": false,
            "inputs": [
                {
                    "indexed": false,
                    "internalType": "address",
                    "name": "assetId",
                    "type": "address"
                },
                {
                    "indexed": false,
                    "internalType": "uint256",
                    "name": "amount",
                    "type": "uint256"
                },
                {
                    "indexed": false,
                    "internalType": "string",
                    "name": "algoWallet",
                    "type": "string"
                },
                {
                    "indexed": false,
                    "internalType": "address",
                    "name": "evmWallet",
                    "type": "address"
                },
                {
                    "indexed": false,
                    "internalType": "uint256",
                    "name": "timestamp",
                    "type": "uint256"
                }
            ],
            "name": "AssetReleased",
            "type": "event"
        },
        {
            "anonymous": false,
            "inputs": [
                {
                    "indexed": false,
                    "internalType": "address",
                    "name": "evmWallet",
                    "type": "address"
                },
                {
                    "indexed": false,
                    "internalType": "uint256",
                    "name": "amount",
                    "type": "uint256"
                }
            ],
            "name": "FaucetDispensed",
            "type": "event"
        },
        {
            "anonymous": false,
            "inputs": [
                {
                    "indexed": false,
                    "internalType": "address",
                    "name": "evmWallet",
                    "type": "address"
                },
                {
                    "indexed": false,
                    "internalType": "string",
                    "name": "algoWallet",
                    "type": "string"
                }
            ],
            "name": "WalletCreated",
            "type": "event"
        },
        {
            "stateMutability": "payable",
            "type": "receive",
            "payable": true
        },
        {
            "inputs": [
                {
                    "internalType": "address",
                    "name": "assetId",
                    "type": "address"
                },
                {
                    "internalType": "uint256",
                    "name": "amount",
                    "type": "uint256"
                }
            ],
            "name": "faucet",
            "outputs": [],
            "stateMutability": "nonpayable",
            "type": "function"
        },
        {
            "inputs": [
                {
                    "internalType": "address",
                    "name": "evmAssetId",
                    "type": "address"
                },
                {
                    "internalType": "uint256",
                    "name": "algoAssetId",
                    "type": "uint256"
                }
            ],
            "name": "createAsset",
            "outputs": [],
            "stateMutability": "nonpayable",
            "type": "function"
        },
        {
            "inputs": [
                {
                    "internalType": "string",
                    "name": "algoWallet",
                    "type": "string"
                }
            ],
            "name": "createWallet",
            "outputs": [],
            "stateMutability": "nonpayable",
            "type": "function"
        },
        {
            "inputs": [
                {
                    "internalType": "address",
                    "name": "evmWallet",
                    "type": "address"
                }
            ],
            "name": "getAlgoWallet",
            "outputs": [
                {
                    "internalType": "string",
                    "name": "",
                    "type": "string"
                }
            ],
            "stateMutability": "view",
            "type": "function",
            "constant": true
        },
        {
            "inputs": [
                {
                    "internalType": "string",
                    "name": "algoWallet",
                    "type": "string"
                }
            ],
            "name": "getEVMWallet",
            "outputs": [
                {
                    "internalType": "address",
                    "name": "",
                    "type": "address"
                }
            ],
            "stateMutability": "view",
            "type": "function",
            "constant": true
        },
        {
            "inputs": [],
            "name": "messageFee",
            "outputs": [
                {
                    "internalType": "uint256",
                    "name": "",
                    "type": "uint256"
                }
            ],
            "stateMutability": "view",
            "type": "function",
            "constant": true
        },
        {
            "inputs": [
                {
                    "internalType": "address",
                    "name": "assetId",
                    "type": "address"
                },
                {
                    "internalType": "uint256",
                    "name": "amount",
                    "type": "uint256"
                }
            ],
            "name": "bridge",
            "outputs": [],
            "stateMutability": "payable",
            "type": "function",
            "payable": true
        },
        {
            "inputs": [
                {
                    "internalType": "uint32",
                    "name": "nonce",
                    "type": "uint32"
                },
                {
                    "internalType": "uint256",
                    "name": "algoAssetId",
                    "type": "uint256"
                },
                {
                    "internalType": "uint256",
                    "name": "amount",
                    "type": "uint256"
                },
                {
                    "internalType": "string",
                    "name": "algoWallet",
                    "type": "string"
                }
            ],
            "name": "receiveMessage",
            "outputs": [],
            "stateMutability": "nonpayable",
            "type": "function"
        }
    ],
    "bytecode": "0x608060405260c8600860006101000a81548160ff021916908360ff1602179055503480156200002d57600080fd5b50604051620020543803806200205483398181016040528101906200005391906200015c565b806000806101000a81548173ffffffffffffffffffffffffffffffffffffffff021916908373ffffffffffffffffffffffffffffffffffffffff160217905550620000a3620000ea60201b60201c565b600660006101000a81548173ffffffffffffffffffffffffffffffffffffffff021916908373ffffffffffffffffffffffffffffffffffffffff160217905550506200018e565b600033905090565b600080fd5b600073ffffffffffffffffffffffffffffffffffffffff82169050919050565b60006200012482620000f7565b9050919050565b620001368162000117565b81146200014257600080fd5b50565b60008151905062000156816200012b565b92915050565b600060208284031215620001755762000174620000f2565b5b6000620001858482850162000145565b91505092915050565b611eb6806200019e6000396000f3fe60806040526004361061007f5760003560e01c80637b56c2b21161004e5780637b56c2b2146101455780639589df4b1461016e578063c3de453d146101ab578063db136b1e146101c757610086565b80631a90a2191461008b5780633d415459146100b657806347510765146100df5780637404f1d21461011c57610086565b3661008657005b600080fd5b34801561009757600080fd5b506100a06101f0565b6040516100ad9190610f47565b60405180910390f35b3480156100c257600080fd5b506100dd60048036038101906100d89190611124565b610287565b005b3480156100eb57600080fd5b5061010660048036038101906101019190611205565b61062b565b60405161011391906112b1565b60405180910390f35b34801561012857600080fd5b50610143600480360381019061013e91906112d3565b6106fc565b005b34801561015157600080fd5b5061016c6004803603810190610167919061131c565b61092a565b005b34801561017a57600080fd5b50610195600480360381019061019091906112d3565b6109f9565b6040516101a2919061136b565b60405180910390f35b6101c560048036038101906101c0919061131c565b610a41565b005b3480156101d357600080fd5b506101ee60048036038101906101e9919061131c565b610e1f565b005b60008060009054906101000a900473ffffffffffffffffffffffffffffffffffffffff1673ffffffffffffffffffffffffffffffffffffffff16631a90a2196040518163ffffffff1660e01b8152600401602060405180830381865afa15801561025e573d6000803e3d6000fd5b505050506040513d601f19601f82011682018060405250810190610282919061139b565b905090565b600160008563ffffffff1663ffffffff16815260200190815260200160002060009054906101000a900460ff16156102f4576040517f08c379a00000000000000000000000000000000000000000000000000000000081526004016102eb90611414565b60405180910390fd5b60018060008663ffffffff1663ffffffff16815260200190815260200160002060006101000a81548160ff021916908315150217905550600660009054906101000a900473ffffffffffffffffffffffffffffffffffffffff1673ffffffffffffffffffffffffffffffffffffffff1661036c610ef2565b73ffffffffffffffffffffffffffffffffffffffff16146103c2576040517f08c379a00000000000000000000000000000000000000000000000000000000081526004016103b990611480565b60405180910390fd5b600073ffffffffffffffffffffffffffffffffffffffff166002826040516103ea91906114dc565b908152602001604051809103902060009054906101000a900473ffffffffffffffffffffffffffffffffffffffff1673ffffffffffffffffffffffffffffffffffffffff160361046f576040517f08c379a00000000000000000000000000000000000000000000000000000000081526004016104669061153f565b60405180910390fd5b60006004600085815260200190815260200160002060009054906101000a900473ffffffffffffffffffffffffffffffffffffffff1690508073ffffffffffffffffffffffffffffffffffffffff1663a9059cbb6002846040516104d391906114dc565b908152602001604051809103902060009054906101000a900473ffffffffffffffffffffffffffffffffffffffff1661050b86610efa565b6040518363ffffffff1660e01b815260040161052892919061155f565b6020604051808303816000875af1158015610547573d6000803e3d6000fd5b505050506040513d601f19601f8201168201806040525081019061056b91906115c0565b507f88fd71e9ed0824e97db956e42d915db1f2c7e649e01be56b64994a59c55c87856004600086815260200190815260200160002060009054906101000a900473ffffffffffffffffffffffffffffffffffffffff166105ca85610efa565b846002866040516105db91906114dc565b908152602001604051809103902060009054906101000a900473ffffffffffffffffffffffffffffffffffffffff164260405161061c9594939291906115ed565b60405180910390a15050505050565b6060600360008373ffffffffffffffffffffffffffffffffffffffff1673ffffffffffffffffffffffffffffffffffffffff168152602001908152602001600020805461067790611676565b80601f01602080910402602001604051908101604052809291908181526020018280546106a390611676565b80156106f05780601f106106c5576101008083540402835291602001916106f0565b820191906000526020600020905b8154815290600101906020018083116106d357829003601f168201915b50505050509050919050565b6000610706610ef2565b90506000600360008373ffffffffffffffffffffffffffffffffffffffff1673ffffffffffffffffffffffffffffffffffffffff168152602001908152602001600020805461075490611676565b905014610796576040517f08c379a000000000000000000000000000000000000000000000000000000000815260040161078d906116f3565b60405180910390fd5b600073ffffffffffffffffffffffffffffffffffffffff166002836040516107be91906114dc565b908152602001604051809103902060009054906101000a900473ffffffffffffffffffffffffffffffffffffffff1673ffffffffffffffffffffffffffffffffffffffff1614610843576040517f08c379a000000000000000000000000000000000000000000000000000000000815260040161083a9061175f565b60405180910390fd5b81600360008373ffffffffffffffffffffffffffffffffffffffff1673ffffffffffffffffffffffffffffffffffffffff168152602001908152602001600020908161088f919061192b565b50806002836040516108a191906114dc565b908152602001604051809103902060006101000a81548173ffffffffffffffffffffffffffffffffffffffff021916908373ffffffffffffffffffffffffffffffffffffffff1602179055507f03768bb3a703b01cc4c51e2f46596839eef3bdfc4d1dc810c789e342d2f405a7818360405161091e9291906119fd565b60405180910390a15050565b6000610934610ef2565b905060008390508073ffffffffffffffffffffffffffffffffffffffff1663a9059cbb83856040518363ffffffff1660e01b815260040161097692919061155f565b6020604051808303816000875af1158015610995573d6000803e3d6000fd5b505050506040513d601f19601f820116820180604052508101906109b991906115c0565b507f4ccc2cb57d301275bff907df4fcc7431ca6cef9083f95cdc1098086c2360e29a82846040516109eb92919061155f565b60405180910390a150505050565b6000600282604051610a0b91906114dc565b908152602001604051809103902060009054906101000a900473ffffffffffffffffffffffffffffffffffffffff169050919050565b6000610a4b610ef2565b90506000600560008573ffffffffffffffffffffffffffffffffffffffff1673ffffffffffffffffffffffffffffffffffffffff1681526020019081526020016000205403610acf576040517f08c379a0000000000000000000000000000000000000000000000000000000008152600401610ac690611a79565b60405180910390fd5b6000600360008373ffffffffffffffffffffffffffffffffffffffff1673ffffffffffffffffffffffffffffffffffffffff1681526020019081526020016000208054610b1b90611676565b905003610b5d576040517f08c379a0000000000000000000000000000000000000000000000000000000008152600401610b5490611ae5565b60405180910390fd5b60008390508073ffffffffffffffffffffffffffffffffffffffff166323b872dd8330866040518463ffffffff1660e01b8152600401610b9f93929190611b05565b6020604051808303816000875af1158015610bbe573d6000803e3d6000fd5b505050506040513d601f19601f82011682018060405250810190610be291906115c0565b506000600560008673ffffffffffffffffffffffffffffffffffffffff1673ffffffffffffffffffffffffffffffffffffffff16815260200190815260200160002054610c2e85610f14565b600360008673ffffffffffffffffffffffffffffffffffffffff1673ffffffffffffffffffffffffffffffffffffffff168152602001908152602001600020604051602001610c7f93929190611bc0565b604051602081830303815290604052905060008054906101000a900473ffffffffffffffffffffffffffffffffffffffff1673ffffffffffffffffffffffffffffffffffffffff1663b19a437e610cd46101f0565b600060149054906101000a900463ffffffff1684600860009054906101000a900460ff166040518563ffffffff1660e01b8152600401610d1693929190611c7e565b60206040518083038185885af1158015610d34573d6000803e3d6000fd5b50505050506040513d601f19601f82011682018060405250810190610d599190611cfc565b506000601481819054906101000a900463ffffffff1680929190610d7c90611d58565b91906101000a81548163ffffffff021916908363ffffffff160217905550507f09cab9f554907f684de7717a97eebb69cf49f71182f2e2b17d439e7bf1489b0e858585600360008873ffffffffffffffffffffffffffffffffffffffff1673ffffffffffffffffffffffffffffffffffffffff16815260200190815260200160002042604051610e10959493929190611d84565b60405180910390a15050505050565b816004600083815260200190815260200160002060006101000a81548173ffffffffffffffffffffffffffffffffffffffff021916908373ffffffffffffffffffffffffffffffffffffffff16021790555080600560008473ffffffffffffffffffffffffffffffffffffffff1673ffffffffffffffffffffffffffffffffffffffff168152602001908152602001600020819055507f20df459a0f7f1bc64a42346a9e6536111a3512be01de7a0f5327a4e13b3370388282604051610ee692919061155f565b60405180910390a15050565b600033905090565b600064e8d4a5100082610f0d9190611dde565b9050919050565b600064e8d4a5100082610f279190611e4f565b9050919050565b6000819050919050565b610f4181610f2e565b82525050565b6000602082019050610f5c6000830184610f38565b92915050565b6000604051905090565b600080fd5b600080fd5b600063ffffffff82169050919050565b610f8f81610f76565b8114610f9a57600080fd5b50565b600081359050610fac81610f86565b92915050565b610fbb81610f2e565b8114610fc657600080fd5b50565b600081359050610fd881610fb2565b92915050565b600080fd5b600080fd5b6000601f19601f8301169050919050565b7f4e487b7100000000000000000000000000000000000000000000000000000000600052604160045260246000fd5b61103182610fe8565b810181811067ffffffffffffffff821117156110505761104f610ff9565b5b80604052505050565b6000611063610f62565b905061106f8282611028565b919050565b600067ffffffffffffffff82111561108f5761108e610ff9565b5b61109882610fe8565b9050602081019050919050565b82818337600083830152505050565b60006110c76110c284611074565b611059565b9050828152602081018484840111156110e3576110e2610fe3565b5b6110ee8482856110a5565b509392505050565b600082601f83011261110b5761110a610fde565b5b813561111b8482602086016110b4565b91505092915050565b6000806000806080858703121561113e5761113d610f6c565b5b600061114c87828801610f9d565b945050602061115d87828801610fc9565b935050604061116e87828801610fc9565b925050606085013567ffffffffffffffff81111561118f5761118e610f71565b5b61119b878288016110f6565b91505092959194509250565b600073ffffffffffffffffffffffffffffffffffffffff82169050919050565b60006111d2826111a7565b9050919050565b6111e2816111c7565b81146111ed57600080fd5b50565b6000813590506111ff816111d9565b92915050565b60006020828403121561121b5761121a610f6c565b5b6000611229848285016111f0565b91505092915050565b600081519050919050565b600082825260208201905092915050565b60005b8381101561126c578082015181840152602081019050611251565b60008484015250505050565b600061128382611232565b61128d818561123d565b935061129d81856020860161124e565b6112a681610fe8565b840191505092915050565b600060208201905081810360008301526112cb8184611278565b905092915050565b6000602082840312156112e9576112e8610f6c565b5b600082013567ffffffffffffffff81111561130757611306610f71565b5b611313848285016110f6565b91505092915050565b6000806040838503121561133357611332610f6c565b5b6000611341858286016111f0565b925050602061135285828601610fc9565b9150509250929050565b611365816111c7565b82525050565b6000602082019050611380600083018461135c565b92915050565b60008151905061139581610fb2565b92915050565b6000602082840312156113b1576113b0610f6c565b5b60006113bf84828501611386565b91505092915050565b7f4d65737361676520616c72656164792070726f63657373656400000000000000600082015250565b60006113fe60198361123d565b9150611409826113c8565b602082019050919050565b6000602082019050818103600083015261142d816113f1565b9050919050565b7f496e76616c69642063616c6c6572000000000000000000000000000000000000600082015250565b600061146a600e8361123d565b915061147582611434565b602082019050919050565b600060208201905081810360008301526114998161145d565b9050919050565b600081905092915050565b60006114b682611232565b6114c081856114a0565b93506114d081856020860161124e565b80840191505092915050565b60006114e882846114ab565b915081905092915050565b7f45766d2061646472657373206e6f742073657400000000000000000000000000600082015250565b600061152960138361123d565b9150611534826114f3565b602082019050919050565b600060208201905081810360008301526115588161151c565b9050919050565b6000604082019050611574600083018561135c565b6115816020830184610f38565b9392505050565b60008115159050919050565b61159d81611588565b81146115a857600080fd5b50565b6000815190506115ba81611594565b92915050565b6000602082840312156115d6576115d5610f6c565b5b60006115e4848285016115ab565b91505092915050565b600060a082019050611602600083018861135c565b61160f6020830187610f38565b81810360408301526116218186611278565b9050611630606083018561135c565b61163d6080830184610f38565b9695505050505050565b7f4e487b7100000000000000000000000000000000000000000000000000000000600052602260045260246000fd5b6000600282049050600182168061168e57607f821691505b6020821081036116a1576116a0611647565b5b50919050565b7f416c676f206164647265737320616c7265616479207573656400000000000000600082015250565b60006116dd60198361123d565b91506116e8826116a7565b602082019050919050565b6000602082019050818103600083015261170c816116d0565b9050919050565b7f45766d2077616c6c657420616c72656164792075736564000000000000000000600082015250565b600061174960178361123d565b915061175482611713565b602082019050919050565b600060208201905081810360008301526117788161173c565b9050919050565b60008190508160005260206000209050919050565b60006020601f8301049050919050565b600082821b905092915050565b6000600883026117e17fffffffffffffffffffffffffffffffffffffffffffffffffffffffffffffffff826117a4565b6117eb86836117a4565b95508019841693508086168417925050509392505050565b6000819050919050565b600061182861182361181e84610f2e565b611803565b610f2e565b9050919050565b6000819050919050565b6118428361180d565b61185661184e8261182f565b8484546117b1565b825550505050565b600090565b61186b61185e565b611876818484611839565b505050565b5b8181101561189a5761188f600082611863565b60018101905061187c565b5050565b601f8211156118df576118b08161177f565b6118b984611794565b810160208510156118c8578190505b6118dc6118d485611794565b83018261187b565b50505b505050565b600082821c905092915050565b6000611902600019846008026118e4565b1980831691505092915050565b600061191b83836118f1565b9150826002028217905092915050565b61193482611232565b67ffffffffffffffff81111561194d5761194c610ff9565b5b6119578254611676565b61196282828561189e565b600060209050601f8311600181146119955760008415611983578287015190505b61198d858261190f565b8655506119f5565b601f1984166119a38661177f565b60005b828110156119cb578489015182556001820191506020850194506020810190506119a6565b868310156119e857848901516119e4601f8916826118f1565b8355505b6001600288020188555050505b505050505050565b6000604082019050611a12600083018561135c565b8181036020830152611a248184611278565b90509392505050565b7f416c676f206173736574206e6f74207365740000000000000000000000000000600082015250565b6000611a6360128361123d565b9150611a6e82611a2d565b602082019050919050565b60006020820190508181036000830152611a9281611a56565b9050919050565b7f416c676f2061646472657373206e6f7420736574000000000000000000000000600082015250565b6000611acf60148361123d565b9150611ada82611a99565b602082019050919050565b60006020820190508181036000830152611afe81611ac2565b9050919050565b6000606082019050611b1a600083018661135c565b611b27602083018561135c565b611b346040830184610f38565b949350505050565b60008154611b4981611676565b611b53818661123d565b94506001821660008114611b6e5760018114611b8457611bb7565b60ff198316865281151560200286019350611bb7565b611b8d8561177f565b60005b83811015611baf57815481890152600182019150602081019050611b90565b808801955050505b50505092915050565b6000606082019050611bd56000830186610f38565b611be26020830185610f38565b8181036040830152611bf48184611b3c565b9050949350505050565b611c0781610f76565b82525050565b600081519050919050565b600082825260208201905092915050565b6000611c3482611c0d565b611c3e8185611c18565b9350611c4e81856020860161124e565b611c5781610fe8565b840191505092915050565b600060ff82169050919050565b611c7881611c62565b82525050565b6000606082019050611c936000830186611bfe565b8181036020830152611ca58185611c29565b9050611cb46040830184611c6f565b949350505050565b600067ffffffffffffffff82169050919050565b611cd981611cbc565b8114611ce457600080fd5b50565b600081519050611cf681611cd0565b92915050565b600060208284031215611d1257611d11610f6c565b5b6000611d2084828501611ce7565b91505092915050565b7f4e487b7100000000000000000000000000000000000000000000000000000000600052601160045260246000fd5b6000611d6382610f76565b915063ffffffff8203611d7957611d78611d29565b5b600182019050919050565b600060a082019050611d99600083018861135c565b611da66020830187610f38565b611db3604083018661135c565b8181036060830152611dc58185611b3c565b9050611dd46080830184610f38565b9695505050505050565b6000611de982610f2e565b9150611df483610f2e565b9250828202611e0281610f2e565b91508282048414831517611e1957611e18611d29565b5b5092915050565b7f4e487b7100000000000000000000000000000000000000000000000000000000600052601260045260246000fd5b6000611e5a82610f2e565b9150611e6583610f2e565b925082611e7557611e74611e20565b5b82820490509291505056fea2646970667358221220c9888ab4aafc15b00427eb13365886a747274a97636f516e31f61cf77367f30c64736f6c63430008110033",
    "immutableReferences": {},
    "source": "// SPDX-License-Identifier: MIT\r\npragma solidity ^0.8.17;\r\n\r\nimport \"./interfaces/IWormhole.sol\";\r\n\r\nimport \"./interfaces/IERC3643.sol\";\r\nimport \"@openzeppelin/contracts/utils/Context.sol\";\r\n\r\ncontract Tunnel is Context {\r\n    IWormhole private _wormhole;\r\n\r\n    uint32 private _nonce;\r\n\r\n    mapping(uint32 => bool) private _delivered;\r\n\r\n    mapping(string => address) private _evmWallet;\r\n    mapping(address => string) private _algoWallet;\r\n\r\n    mapping(uint256 => address) private _evmAsset;\r\n    mapping(address => uint256) private _algoAsset;\r\n\r\n    address private _deployer;\r\n\r\n    uint256 private GAS_LIMIT;\r\n    uint8 private CONSISTENCY_LEVEL = 200;\r\n\r\n    event AssetLocked(\r\n        address assetId,\r\n        uint256 amount,\r\n        address evmWallet,\r\n        string algoWallet,\r\n        uint256 timestamp\r\n    );\r\n\r\n    event AssetReleased(\r\n        address assetId,\r\n        uint256 amount,\r\n        string algoWallet,\r\n        address evmWallet,\r\n        uint256 timestamp\r\n    );\r\n\r\n    event WalletCreated(address evmWallet, string algoWallet);\r\n\r\n    event AssetCreated(address evmAssetId, uint256 algoAssetId);\r\n\r\n    event FaucetDispensed(address evmWallet, uint256 amount);\r\n\r\n    constructor(address wormhole_) {\r\n        _wormhole = IWormhole(wormhole_);\r\n        _deployer = _msgSender();\r\n    }\r\n\r\n    function faucet(address assetId, uint256 amount) external {\r\n        address evmWallet = _msgSender();\r\n\r\n        IERC3643 asset = IERC3643(assetId);\r\n        asset.transfer(evmWallet, amount);\r\n\r\n        emit FaucetDispensed(evmWallet, amount);\r\n    }\r\n\r\n    function createAsset(address evmAssetId, uint256 algoAssetId) external {\r\n        _evmAsset[algoAssetId] = evmAssetId;\r\n        _algoAsset[evmAssetId] = algoAssetId;\r\n\r\n        emit AssetCreated(evmAssetId, algoAssetId);\r\n    }\r\n\r\n    function createWallet(string memory algoWallet) external {\r\n        address evmWallet = _msgSender();\r\n\r\n        require(\r\n            bytes(_algoWallet[evmWallet]).length == 0,\r\n            \"Algo address already used\"\r\n        );\r\n\r\n        require(\r\n            _evmWallet[algoWallet] == address(0),\r\n            \"Evm wallet already used\"\r\n        );\r\n\r\n        _algoWallet[evmWallet] = algoWallet;\r\n        _evmWallet[algoWallet] = evmWallet;\r\n\r\n        emit WalletCreated(evmWallet, algoWallet);\r\n    }\r\n\r\n    /// @dev For corresponding algo wallet\r\n    function getAlgoWallet(\r\n        address evmWallet\r\n    ) external view returns (string memory) {\r\n        return _algoWallet[evmWallet];\r\n    }\r\n\r\n    /// @dev For corresponding evm wallet\r\n    function getEVMWallet(\r\n        string memory algoWallet\r\n    ) external view returns (address) {\r\n        return _evmWallet[algoWallet];\r\n    }\r\n\r\n    /// @dev For getting briging fee\r\n    function messageFee() public view returns (uint256) {\r\n        return _wormhole.messageFee();\r\n    }\r\n\r\n    /// @dev This function locks the Original NFT\r\n    function bridge(address assetId, uint256 amount) external payable {\r\n        address evmWallet = _msgSender();\r\n\r\n        require(_algoAsset[assetId] != uint256(0), \"Algo asset not set\");\r\n        require(\r\n            bytes(_algoWallet[evmWallet]).length != 0,\r\n            \"Algo address not set\"\r\n        );\r\n\r\n        IERC3643 asset = IERC3643(assetId);\r\n        asset.transferFrom(evmWallet, address(this), amount);\r\n\r\n        bytes memory payload = abi.encode(\r\n            _algoAsset[assetId],\r\n            _algoAmount(amount),\r\n            _algoWallet[evmWallet]\r\n        );\r\n\r\n        _wormhole.publishMessage{value: messageFee()}(\r\n            _nonce,\r\n            payload,\r\n            CONSISTENCY_LEVEL\r\n        );\r\n\r\n        _nonce++;\r\n\r\n        emit AssetLocked(\r\n            assetId,\r\n            amount,\r\n            evmWallet,\r\n            _algoWallet[evmWallet],\r\n            block.timestamp\r\n        );\r\n    }\r\n\r\n    // @dev This function unlocks the Original asset to the\r\n    function receiveMessage(\r\n        uint32 nonce,\r\n        uint256 algoAssetId,\r\n        uint256 amount, // in micro-algo format\r\n        string memory algoWallet\r\n    ) external {\r\n        // Ensure no duplicate deliveries\r\n        require(!_delivered[nonce], \"Message already processed\");\r\n        _delivered[nonce] = true;\r\n\r\n        require(_msgSender() == _deployer, \"Invalid caller\");\r\n\r\n        require(_evmWallet[algoWallet] != address(0), \"Evm address not set\");\r\n\r\n        IERC3643 asset = IERC3643(_evmAsset[algoAssetId]);\r\n        asset.transfer(_evmWallet[algoWallet], _evmAmount(amount));\r\n\r\n        emit AssetReleased(\r\n            _evmAsset[algoAssetId],\r\n            _evmAmount(amount),\r\n            algoWallet,\r\n            _evmWallet[algoWallet],\r\n            block.timestamp\r\n        );\r\n    }\r\n\r\n    function _evmAmount(uint256 algoAmmount) private pure returns (uint256) {\r\n        return algoAmmount * 1_000_000_000_000;\r\n    }\r\n\r\n    function _algoAmount(uint256 evmAmount) private pure returns (uint256) {\r\n        return evmAmount / 1_000_000_000_000;\r\n    }\r\n\r\n    receive() external payable {}\r\n}\r\n",
    "sourcePath": "C:\\Users\\DELL\\Documents\\tunnel\\solidity\\contracts\\Tunnel.sol",
    "compiler": {
        "name": "solc",
        "version": "0.8.17+commit.8df45f5f.Emscripten.clang"
    },
    "schemaVersion": "3.4.11",
    "updatedAt": "2023-11-13T09:10:22.352Z",
    "networkType": "ethereum",
    "devdoc": {
        "kind": "dev",
        "methods": {
            "bridge(address,uint256)": {
                "details": "This function locks the Original NFT"
            },
            "getAlgoWallet(address)": {
                "details": "For corresponding algo wallet"
            },
            "getEVMWallet(string)": {
                "details": "For corresponding evm wallet"
            },
            "messageFee()": {
                "details": "For getting briging fee"
            }
        },
        "version": 1
    },
    "userdoc": {
        "kind": "user",
        "methods": {},
        "version": 1
    }
}