{
    "contractName": "Tunnel",
    "abi": [
        {
            "inputs": [
                {
                    "internalType": "address",
                    "name": "wormhole_",
                    "type": "address"
                }
            ],
            "stateMutability": "nonpayable",
            "type": "constructor"
        },
        {
            "anonymous": false,
            "inputs": [
                {
                    "indexed": false,
                    "internalType": "address",
                    "name": "assetId",
                    "type": "address"
                },
                {
                    "indexed": false,
                    "internalType": "uint256",
                    "name": "amount",
                    "type": "uint256"
                },
                {
                    "indexed": false,
                    "internalType": "address",
                    "name": "evmWallet",
                    "type": "address"
                },
                {
                    "indexed": false,
                    "internalType": "string",
                    "name": "algoWallet",
                    "type": "string"
                },
                {
                    "indexed": false,
                    "internalType": "uint256",
                    "name": "timestamp",
                    "type": "uint256"
                }
            ],
            "name": "AssetLocked",
            "type": "event"
        },
        {
            "anonymous": false,
            "inputs": [
                {
                    "indexed": false,
                    "internalType": "address",
                    "name": "assetId",
                    "type": "address"
                },
                {
                    "indexed": false,
                    "internalType": "uint256",
                    "name": "amount",
                    "type": "uint256"
                },
                {
                    "indexed": false,
                    "internalType": "string",
                    "name": "algoWallet",
                    "type": "string"
                },
                {
                    "indexed": false,
                    "internalType": "address",
                    "name": "evmWallet",
                    "type": "address"
                },
                {
                    "indexed": false,
                    "internalType": "uint256",
                    "name": "timestamp",
                    "type": "uint256"
                }
            ],
            "name": "AssetReleased",
            "type": "event"
        },
        {
            "anonymous": false,
            "inputs": [
                {
                    "indexed": false,
                    "internalType": "address",
                    "name": "evmWallet",
                    "type": "address"
                },
                {
                    "indexed": false,
                    "internalType": "uint256",
                    "name": "amount",
                    "type": "uint256"
                }
            ],
            "name": "FaucetDispensed",
            "type": "event"
        },
        {
            "anonymous": false,
            "inputs": [
                {
                    "indexed": false,
                    "internalType": "address",
                    "name": "evmWallet",
                    "type": "address"
                },
                {
                    "indexed": false,
                    "internalType": "string",
                    "name": "algoWallet",
                    "type": "string"
                }
            ],
            "name": "WalletCreated",
            "type": "event"
        },
        {
            "stateMutability": "payable",
            "type": "receive",
            "payable": true
        },
        {
            "inputs": [
                {
                    "internalType": "address",
                    "name": "assetId",
                    "type": "address"
                },
                {
                    "internalType": "uint256",
                    "name": "amount",
                    "type": "uint256"
                }
            ],
            "name": "faucet",
            "outputs": [],
            "stateMutability": "nonpayable",
            "type": "function"
        },
        {
            "inputs": [
                {
                    "internalType": "string",
                    "name": "algoWallet",
                    "type": "string"
                }
            ],
            "name": "createWallet",
            "outputs": [],
            "stateMutability": "nonpayable",
            "type": "function"
        },
        {
            "inputs": [
                {
                    "internalType": "address",
                    "name": "evmWallet",
                    "type": "address"
                }
            ],
            "name": "getAlgoWallet",
            "outputs": [
                {
                    "internalType": "string",
                    "name": "",
                    "type": "string"
                }
            ],
            "stateMutability": "view",
            "type": "function",
            "constant": true
        },
        {
            "inputs": [],
            "name": "messageFee",
            "outputs": [
                {
                    "internalType": "uint256",
                    "name": "",
                    "type": "uint256"
                }
            ],
            "stateMutability": "view",
            "type": "function",
            "constant": true
        },
        {
            "inputs": [
                {
                    "internalType": "address",
                    "name": "assetId",
                    "type": "address"
                },
                {
                    "internalType": "uint256",
                    "name": "amount",
                    "type": "uint256"
                }
            ],
            "name": "bridge",
            "outputs": [],
            "stateMutability": "payable",
            "type": "function",
            "payable": true
        },
        {
            "inputs": [
                {
                    "internalType": "uint32",
                    "name": "nonce",
                    "type": "uint32"
                },
                {
                    "internalType": "bytes",
                    "name": "payload",
                    "type": "bytes"
                }
            ],
            "name": "receiveMessage",
            "outputs": [],
            "stateMutability": "nonpayable",
            "type": "function"
        }
    ],
    "bytecode": "0x608060405260c8600760006101000a81548160ff021916908360ff1602179055503480156200002d57600080fd5b5060405162001bca38038062001bca833981810160405281019062000053919062000104565b806000806101000a81548173ffffffffffffffffffffffffffffffffffffffff021916908373ffffffffffffffffffffffffffffffffffffffff1602179055505062000136565b600080fd5b600073ffffffffffffffffffffffffffffffffffffffff82169050919050565b6000620000cc826200009f565b9050919050565b620000de81620000bf565b8114620000ea57600080fd5b50565b600081519050620000fe81620000d3565b92915050565b6000602082840312156200011d576200011c6200009a565b5b60006200012d84828501620000ed565b91505092915050565b611a8480620001466000396000f3fe6080604052600436106100595760003560e01c80631a90a2191461006557806347510765146100905780637404f1d2146100cd5780637b56c2b2146100f6578063c3de453d1461011f578063fb9a98d61461013b57610060565b3661006057005b600080fd5b34801561007157600080fd5b5061007a610164565b6040516100879190610b87565b60405180910390f35b34801561009c57600080fd5b506100b760048036038101906100b29190610c14565b6101fb565b6040516100c49190610cd1565b60405180910390f35b3480156100d957600080fd5b506100f460048036038101906100ef9190610e28565b6102cc565b005b34801561010257600080fd5b5061011d60048036038101906101189190610e9d565b61046c565b005b61013960048036038101906101349190610e9d565b61053b565b005b34801561014757600080fd5b50610162600480360381019061015d9190610fba565b610809565b005b60008060009054906101000a900473ffffffffffffffffffffffffffffffffffffffff1673ffffffffffffffffffffffffffffffffffffffff16631a90a2196040518163ffffffff1660e01b8152600401602060405180830381865afa1580156101d2573d6000803e3d6000fd5b505050506040513d601f19601f820116820180604052508101906101f6919061102b565b905090565b6060600360008373ffffffffffffffffffffffffffffffffffffffff1673ffffffffffffffffffffffffffffffffffffffff168152602001908152602001600020805461024790611087565b80601f016020809104026020016040519081016040528092919081815260200182805461027390611087565b80156102c05780601f10610295576101008083540402835291602001916102c0565b820191906000526020600020905b8154815290600101906020018083116102a357829003601f168201915b50505050509050919050565b60006102d6610b36565b9050600073ffffffffffffffffffffffffffffffffffffffff1660028360405161030091906110f4565b908152602001604051809103902060009054906101000a900473ffffffffffffffffffffffffffffffffffffffff1673ffffffffffffffffffffffffffffffffffffffff1614610385576040517f08c379a000000000000000000000000000000000000000000000000000000000815260040161037c90611157565b60405180910390fd5b81600360008373ffffffffffffffffffffffffffffffffffffffff1673ffffffffffffffffffffffffffffffffffffffff16815260200190815260200160002090816103d19190611323565b50806002836040516103e391906110f4565b908152602001604051809103902060006101000a81548173ffffffffffffffffffffffffffffffffffffffff021916908373ffffffffffffffffffffffffffffffffffffffff1602179055507f03768bb3a703b01cc4c51e2f46596839eef3bdfc4d1dc810c789e342d2f405a78183604051610460929190611404565b60405180910390a15050565b6000610476610b36565b905060008390508073ffffffffffffffffffffffffffffffffffffffff1663a9059cbb83856040518363ffffffff1660e01b81526004016104b8929190611434565b6020604051808303816000875af11580156104d7573d6000803e3d6000fd5b505050506040513d601f19601f820116820180604052508101906104fb9190611495565b507f4ccc2cb57d301275bff907df4fcc7431ca6cef9083f95cdc1098086c2360e29a828460405161052d929190611434565b60405180910390a150505050565b6000610545610b36565b905060008390508073ffffffffffffffffffffffffffffffffffffffff166323b872dd8330866040518463ffffffff1660e01b8152600401610589939291906114c2565b6020604051808303816000875af11580156105a8573d6000803e3d6000fd5b505050506040513d601f19601f820116820180604052508101906105cc9190611495565b506000600560008673ffffffffffffffffffffffffffffffffffffffff1673ffffffffffffffffffffffffffffffffffffffff1681526020019081526020016000205461061885610b3e565b600360008673ffffffffffffffffffffffffffffffffffffffff1673ffffffffffffffffffffffffffffffffffffffff1681526020019081526020016000206040516020016106699392919061157d565b604051602081830303815290604052905060008054906101000a900473ffffffffffffffffffffffffffffffffffffffff1673ffffffffffffffffffffffffffffffffffffffff1663b19a437e6106be610164565b600060149054906101000a900463ffffffff1684600760009054906101000a900460ff166040518563ffffffff1660e01b81526004016107009392919061163b565b60206040518083038185885af115801561071e573d6000803e3d6000fd5b50505050506040513d601f19601f8201168201806040525081019061074391906116b9565b506000601481819054906101000a900463ffffffff168092919061076690611715565b91906101000a81548163ffffffff021916908363ffffffff160217905550507f09cab9f554907f684de7717a97eebb69cf49f71182f2e2b17d439e7bf1489b0e858585600360008873ffffffffffffffffffffffffffffffffffffffff1673ffffffffffffffffffffffffffffffffffffffff168152602001908152602001600020426040516107fa959493929190611741565b60405180910390a15050505050565b600160008363ffffffff1663ffffffff16815260200190815260200160002060009054906101000a900460ff1615610876576040517f08c379a000000000000000000000000000000000000000000000000000000000815260040161086d906117e7565b60405180910390fd5b60018060008463ffffffff1663ffffffff16815260200190815260200160002060006101000a81548160ff0219169083151502179055506000806000838060200190518101906108c69190611877565b925092509250600073ffffffffffffffffffffffffffffffffffffffff166002826040516108f491906110f4565b908152602001604051809103902060009054906101000a900473ffffffffffffffffffffffffffffffffffffffff1673ffffffffffffffffffffffffffffffffffffffff1603610979576040517f08c379a000000000000000000000000000000000000000000000000000000000815260040161097090611932565b60405180910390fd5b60006004600085815260200190815260200160002060009054906101000a900473ffffffffffffffffffffffffffffffffffffffff1690508073ffffffffffffffffffffffffffffffffffffffff1663a9059cbb6002846040516109dd91906110f4565b908152602001604051809103902060009054906101000a900473ffffffffffffffffffffffffffffffffffffffff16610a1586610b56565b6040518363ffffffff1660e01b8152600401610a32929190611434565b6020604051808303816000875af1158015610a51573d6000803e3d6000fd5b505050506040513d601f19601f82011682018060405250810190610a759190611495565b507f88fd71e9ed0824e97db956e42d915db1f2c7e649e01be56b64994a59c55c87856004600086815260200190815260200160002060009054906101000a900473ffffffffffffffffffffffffffffffffffffffff16610ad485610b56565b84600286604051610ae591906110f4565b908152602001604051809103902060009054906101000a900473ffffffffffffffffffffffffffffffffffffffff1642604051610b26959493929190611952565b60405180910390a1505050505050565b600033905090565b6000620f424082610b4f91906119db565b9050919050565b6000620f424082610b679190611a0c565b9050919050565b6000819050919050565b610b8181610b6e565b82525050565b6000602082019050610b9c6000830184610b78565b92915050565b6000604051905090565b600080fd5b600080fd5b600073ffffffffffffffffffffffffffffffffffffffff82169050919050565b6000610be182610bb6565b9050919050565b610bf181610bd6565b8114610bfc57600080fd5b50565b600081359050610c0e81610be8565b92915050565b600060208284031215610c2a57610c29610bac565b5b6000610c3884828501610bff565b91505092915050565b600081519050919050565b600082825260208201905092915050565b60005b83811015610c7b578082015181840152602081019050610c60565b60008484015250505050565b6000601f19601f8301169050919050565b6000610ca382610c41565b610cad8185610c4c565b9350610cbd818560208601610c5d565b610cc681610c87565b840191505092915050565b60006020820190508181036000830152610ceb8184610c98565b905092915050565b600080fd5b600080fd5b7f4e487b7100000000000000000000000000000000000000000000000000000000600052604160045260246000fd5b610d3582610c87565b810181811067ffffffffffffffff82111715610d5457610d53610cfd565b5b80604052505050565b6000610d67610ba2565b9050610d738282610d2c565b919050565b600067ffffffffffffffff821115610d9357610d92610cfd565b5b610d9c82610c87565b9050602081019050919050565b82818337600083830152505050565b6000610dcb610dc684610d78565b610d5d565b905082815260208101848484011115610de757610de6610cf8565b5b610df2848285610da9565b509392505050565b600082601f830112610e0f57610e0e610cf3565b5b8135610e1f848260208601610db8565b91505092915050565b600060208284031215610e3e57610e3d610bac565b5b600082013567ffffffffffffffff811115610e5c57610e5b610bb1565b5b610e6884828501610dfa565b91505092915050565b610e7a81610b6e565b8114610e8557600080fd5b50565b600081359050610e9781610e71565b92915050565b60008060408385031215610eb457610eb3610bac565b5b6000610ec285828601610bff565b9250506020610ed385828601610e88565b9150509250929050565b600063ffffffff82169050919050565b610ef681610edd565b8114610f0157600080fd5b50565b600081359050610f1381610eed565b92915050565b600067ffffffffffffffff821115610f3457610f33610cfd565b5b610f3d82610c87565b9050602081019050919050565b6000610f5d610f5884610f19565b610d5d565b905082815260208101848484011115610f7957610f78610cf8565b5b610f84848285610da9565b509392505050565b600082601f830112610fa157610fa0610cf3565b5b8135610fb1848260208601610f4a565b91505092915050565b60008060408385031215610fd157610fd0610bac565b5b6000610fdf85828601610f04565b925050602083013567ffffffffffffffff81111561100057610fff610bb1565b5b61100c85828601610f8c565b9150509250929050565b60008151905061102581610e71565b92915050565b60006020828403121561104157611040610bac565b5b600061104f84828501611016565b91505092915050565b7f4e487b7100000000000000000000000000000000000000000000000000000000600052602260045260246000fd5b6000600282049050600182168061109f57607f821691505b6020821081036110b2576110b1611058565b5b50919050565b600081905092915050565b60006110ce82610c41565b6110d881856110b8565b93506110e8818560208601610c5d565b80840191505092915050565b600061110082846110c3565b915081905092915050565b7f45766d2077616c6c657420616c72656164792075736564000000000000000000600082015250565b6000611141601783610c4c565b915061114c8261110b565b602082019050919050565b6000602082019050818103600083015261117081611134565b9050919050565b60008190508160005260206000209050919050565b60006020601f8301049050919050565b600082821b905092915050565b6000600883026111d97fffffffffffffffffffffffffffffffffffffffffffffffffffffffffffffffff8261119c565b6111e3868361119c565b95508019841693508086168417925050509392505050565b6000819050919050565b600061122061121b61121684610b6e565b6111fb565b610b6e565b9050919050565b6000819050919050565b61123a83611205565b61124e61124682611227565b8484546111a9565b825550505050565b600090565b611263611256565b61126e818484611231565b505050565b5b818110156112925761128760008261125b565b600181019050611274565b5050565b601f8211156112d7576112a881611177565b6112b18461118c565b810160208510156112c0578190505b6112d46112cc8561118c565b830182611273565b50505b505050565b600082821c905092915050565b60006112fa600019846008026112dc565b1980831691505092915050565b600061131383836112e9565b9150826002028217905092915050565b61132c82610c41565b67ffffffffffffffff81111561134557611344610cfd565b5b61134f8254611087565b61135a828285611296565b600060209050601f83116001811461138d576000841561137b578287015190505b6113858582611307565b8655506113ed565b601f19841661139b86611177565b60005b828110156113c35784890151825560018201915060208501945060208101905061139e565b868310156113e057848901516113dc601f8916826112e9565b8355505b6001600288020188555050505b505050505050565b6113fe81610bd6565b82525050565b600060408201905061141960008301856113f5565b818103602083015261142b8184610c98565b90509392505050565b600060408201905061144960008301856113f5565b6114566020830184610b78565b9392505050565b60008115159050919050565b6114728161145d565b811461147d57600080fd5b50565b60008151905061148f81611469565b92915050565b6000602082840312156114ab576114aa610bac565b5b60006114b984828501611480565b91505092915050565b60006060820190506114d760008301866113f5565b6114e460208301856113f5565b6114f16040830184610b78565b949350505050565b6000815461150681611087565b6115108186610c4c565b9450600182166000811461152b576001811461154157611574565b60ff198316865281151560200286019350611574565b61154a85611177565b60005b8381101561156c5781548189015260018201915060208101905061154d565b808801955050505b50505092915050565b60006060820190506115926000830186610b78565b61159f6020830185610b78565b81810360408301526115b181846114f9565b9050949350505050565b6115c481610edd565b82525050565b600081519050919050565b600082825260208201905092915050565b60006115f1826115ca565b6115fb81856115d5565b935061160b818560208601610c5d565b61161481610c87565b840191505092915050565b600060ff82169050919050565b6116358161161f565b82525050565b600060608201905061165060008301866115bb565b818103602083015261166281856115e6565b9050611671604083018461162c565b949350505050565b600067ffffffffffffffff82169050919050565b61169681611679565b81146116a157600080fd5b50565b6000815190506116b38161168d565b92915050565b6000602082840312156116cf576116ce610bac565b5b60006116dd848285016116a4565b91505092915050565b7f4e487b7100000000000000000000000000000000000000000000000000000000600052601160045260246000fd5b600061172082610edd565b915063ffffffff8203611736576117356116e6565b5b600182019050919050565b600060a08201905061175660008301886113f5565b6117636020830187610b78565b61177060408301866113f5565b818103606083015261178281856114f9565b90506117916080830184610b78565b9695505050505050565b7f4d65737361676520616c72656164792070726f63657373656400000000000000600082015250565b60006117d1601983610c4c565b91506117dc8261179b565b602082019050919050565b60006020820190508181036000830152611800816117c4565b9050919050565b600061181a61181584610d78565b610d5d565b90508281526020810184848401111561183657611835610cf8565b5b611841848285610c5d565b509392505050565b600082601f83011261185e5761185d610cf3565b5b815161186e848260208601611807565b91505092915050565b6000806000606084860312156118905761188f610bac565b5b600061189e86828701611016565b93505060206118af86828701611016565b925050604084015167ffffffffffffffff8111156118d0576118cf610bb1565b5b6118dc86828701611849565b9150509250925092565b7f45766d2061646472657373206e6f742073657400000000000000000000000000600082015250565b600061191c601383610c4c565b9150611927826118e6565b602082019050919050565b6000602082019050818103600083015261194b8161190f565b9050919050565b600060a08201905061196760008301886113f5565b6119746020830187610b78565b81810360408301526119868186610c98565b905061199560608301856113f5565b6119a26080830184610b78565b9695505050505050565b7f4e487b7100000000000000000000000000000000000000000000000000000000600052601260045260246000fd5b60006119e682610b6e565b91506119f183610b6e565b925082611a0157611a006119ac565b5b828204905092915050565b6000611a1782610b6e565b9150611a2283610b6e565b9250828202611a3081610b6e565b91508282048414831517611a4757611a466116e6565b5b509291505056fea26469706673582212207c247045935ba128e9240c6af50c97576706b408b300941a3b809cdee8d9c53764736f6c63430008110033",
    "immutableReferences": {},
    "source": "// SPDX-License-Identifier: MIT\r\npragma solidity ^0.8.17;\r\n\r\nimport \"./interfaces/IWormhole.sol\";\r\n\r\nimport \"./interfaces/IERC3643.sol\";\r\nimport \"@openzeppelin/contracts/utils/Context.sol\";\r\n\r\ncontract Tunnel is Context {\r\n    IWormhole private _wormhole;\r\n\r\n    uint32 private _nonce;\r\n\r\n    mapping(uint32 => bool) private _delivered;\r\n\r\n    mapping(string => address) private _evmWallet;\r\n    mapping(address => string) private _algoWallet;\r\n\r\n    mapping(uint256 => address) private _evmAsset;\r\n    mapping(address => uint256) private _algoAsset;\r\n\r\n    uint256 private GAS_LIMIT;\r\n    uint8 private CONSISTENCY_LEVEL = 200;\r\n\r\n    event AssetLocked(\r\n        address assetId,\r\n        uint256 amount,\r\n        address evmWallet,\r\n        string algoWallet,\r\n        uint256 timestamp\r\n    );\r\n\r\n    event AssetReleased(\r\n        address assetId,\r\n        uint256 amount,\r\n        string algoWallet,\r\n        address evmWallet,\r\n        uint256 timestamp\r\n    );\r\n\r\n    event WalletCreated(address evmWallet, string algoWallet);\r\n\r\n    event FaucetDispensed(address evmWallet, uint256 amount);\r\n\r\n    constructor(address wormhole_) {\r\n        _wormhole = IWormhole(wormhole_);\r\n    }\r\n\r\n    function faucet(address assetId, uint256 amount) external {\r\n        address evmWallet = _msgSender();\r\n\r\n        IERC3643 asset = IERC3643(assetId);\r\n        asset.transfer(evmWallet, amount);\r\n\r\n        emit FaucetDispensed(evmWallet, amount);\r\n    }\r\n\r\n    function createWallet(string memory algoWallet) external {\r\n        address evmWallet = _msgSender();\r\n\r\n        // require(\r\n        //     _algoWallet[evmWallet] == bytes32(0),\r\n        //     \"Algo wallet already used\"\r\n        // );\r\n\r\n        require(\r\n            _evmWallet[algoWallet] == address(0),\r\n            \"Evm wallet already used\"\r\n        );\r\n\r\n        _algoWallet[evmWallet] = algoWallet;\r\n        _evmWallet[algoWallet] = evmWallet;\r\n\r\n        emit WalletCreated(evmWallet, algoWallet);\r\n    }\r\n\r\n    function getAlgoWallet(\r\n        address evmWallet\r\n    ) external view returns (string memory) {\r\n        return _algoWallet[evmWallet];\r\n    }\r\n\r\n    /// @dev For getting briging fee\r\n    function messageFee() public view returns (uint256) {\r\n        return _wormhole.messageFee();\r\n    }\r\n\r\n    /// @dev This function locks the Original NFT\r\n    /// and tell whirlExtension Contract to mint a new similar NFT\r\n    function bridge(address assetId, uint256 amount) external payable {\r\n        address evmWallet = _msgSender();\r\n\r\n        // require(_algoWallet[evmWallet] != bytes32(0), \"Algo address not set\");\r\n\r\n        IERC3643 asset = IERC3643(assetId);\r\n        asset.transferFrom(evmWallet, address(this), amount);\r\n\r\n        bytes memory payload = abi.encode(\r\n            _algoAsset[assetId],\r\n            _algoAmount(amount),\r\n            _algoWallet[evmWallet]\r\n        );\r\n\r\n        _wormhole.publishMessage{value: messageFee()}(\r\n            _nonce,\r\n            payload,\r\n            CONSISTENCY_LEVEL\r\n        );\r\n\r\n        _nonce++;\r\n\r\n        emit AssetLocked(\r\n            assetId,\r\n            amount,\r\n            evmWallet,\r\n            _algoWallet[evmWallet],\r\n            block.timestamp\r\n        );\r\n    }\r\n\r\n    // @dev This function unlocks the Original asset to the\r\n    function receiveMessage(uint32 nonce, bytes memory payload) external {\r\n        // Ensure no duplicate deliveries\r\n        require(!_delivered[nonce], \"Message already processed\");\r\n        _delivered[nonce] = true;\r\n\r\n        // Parse the payload and do the corresponding actions!\r\n        (uint256 assetId, uint256 amount, string memory algoWallet) = abi\r\n            .decode(payload, (uint256, uint256, string));\r\n\r\n        require(_evmWallet[algoWallet] != address(0), \"Evm address not set\");\r\n\r\n        IERC3643 asset = IERC3643(_evmAsset[assetId]);\r\n        asset.transfer(_evmWallet[algoWallet], _evmAmount(amount));\r\n\r\n        emit AssetReleased(\r\n            _evmAsset[assetId],\r\n            _evmAmount(amount),\r\n            algoWallet,\r\n            _evmWallet[algoWallet],\r\n            block.timestamp\r\n        );\r\n    }\r\n\r\n    function _evmAmount(uint256 algoAmmount) private pure returns (uint256) {\r\n        return algoAmmount * 1_000_000;\r\n    }\r\n\r\n    function _algoAmount(uint256 evmAmount) private pure returns (uint256) {\r\n        return evmAmount / 1_000_000;\r\n    }\r\n\r\n    receive() external payable {}\r\n}\r\n",
    "sourcePath": "C:\\Users\\DELL\\Documents\\tunnel\\solidity\\contracts\\Tunnel.sol",
    "compiler": {
        "name": "solc",
        "version": "0.8.17+commit.8df45f5f.Emscripten.clang"
    },
    "schemaVersion": "3.4.11",
    "updatedAt": "2023-11-05T10:15:16.531Z",
    "networkType": "ethereum",
    "devdoc": {
        "kind": "dev",
        "methods": {
            "bridge(address,uint256)": {
                "details": "This function locks the Original NFT and tell whirlExtension Contract to mint a new similar NFT"
            },
            "messageFee()": {
                "details": "For getting briging fee"
            }
        },
        "version": 1
    },
    "userdoc": {
        "kind": "user",
        "methods": {},
        "version": 1
    }
}