{
    "contractName": "Tunnel",
    "abi": [
        {
            "inputs": [
                {
                    "internalType": "address",
                    "name": "wormhole_",
                    "type": "address"
                }
            ],
            "stateMutability": "nonpayable",
            "type": "constructor"
        },
        {
            "anonymous": false,
            "inputs": [
                {
                    "indexed": false,
                    "internalType": "address",
                    "name": "assetId",
                    "type": "address"
                },
                {
                    "indexed": false,
                    "internalType": "uint256",
                    "name": "amount",
                    "type": "uint256"
                },
                {
                    "indexed": false,
                    "internalType": "address",
                    "name": "evmWallet",
                    "type": "address"
                },
                {
                    "indexed": false,
                    "internalType": "bytes32",
                    "name": "algoWallet",
                    "type": "bytes32"
                },
                {
                    "indexed": false,
                    "internalType": "uint256",
                    "name": "timestamp",
                    "type": "uint256"
                }
            ],
            "name": "AssetLocked",
            "type": "event"
        },
        {
            "anonymous": false,
            "inputs": [
                {
                    "indexed": false,
                    "internalType": "address",
                    "name": "assetId",
                    "type": "address"
                },
                {
                    "indexed": false,
                    "internalType": "uint256",
                    "name": "amount",
                    "type": "uint256"
                },
                {
                    "indexed": false,
                    "internalType": "bytes32",
                    "name": "algoWallet",
                    "type": "bytes32"
                },
                {
                    "indexed": false,
                    "internalType": "address",
                    "name": "evmWallet",
                    "type": "address"
                },
                {
                    "indexed": false,
                    "internalType": "uint256",
                    "name": "timestamp",
                    "type": "uint256"
                }
            ],
            "name": "AssetReleased",
            "type": "event"
        },
        {
            "anonymous": false,
            "inputs": [
                {
                    "indexed": false,
                    "internalType": "address",
                    "name": "evmWallet",
                    "type": "address"
                },
                {
                    "indexed": false,
                    "internalType": "uint256",
                    "name": "amount",
                    "type": "uint256"
                }
            ],
            "name": "FaucetDispensed",
            "type": "event"
        },
        {
            "anonymous": false,
            "inputs": [
                {
                    "indexed": false,
                    "internalType": "address",
                    "name": "evmWallet",
                    "type": "address"
                },
                {
                    "indexed": false,
                    "internalType": "bytes32",
                    "name": "algoWallet",
                    "type": "bytes32"
                }
            ],
            "name": "WalletCreated",
            "type": "event"
        },
        {
            "stateMutability": "payable",
            "type": "receive"
        },
        {
            "inputs": [
                {
                    "internalType": "address",
                    "name": "assetId",
                    "type": "address"
                },
                {
                    "internalType": "uint256",
                    "name": "amount",
                    "type": "uint256"
                }
            ],
            "name": "faucet",
            "outputs": [],
            "stateMutability": "nonpayable",
            "type": "function"
        },
        {
            "inputs": [
                {
                    "internalType": "bytes32",
                    "name": "algoWallet",
                    "type": "bytes32"
                }
            ],
            "name": "createWallet",
            "outputs": [],
            "stateMutability": "nonpayable",
            "type": "function"
        },
        {
            "inputs": [
                {
                    "internalType": "address",
                    "name": "evmWallet",
                    "type": "address"
                }
            ],
            "name": "getAlgoWallet",
            "outputs": [
                {
                    "internalType": "bytes32",
                    "name": "",
                    "type": "bytes32"
                }
            ],
            "stateMutability": "view",
            "type": "function"
        },
        {
            "inputs": [],
            "name": "messageFee",
            "outputs": [
                {
                    "internalType": "uint256",
                    "name": "",
                    "type": "uint256"
                }
            ],
            "stateMutability": "view",
            "type": "function"
        },
        {
            "inputs": [
                {
                    "internalType": "address",
                    "name": "assetId",
                    "type": "address"
                },
                {
                    "internalType": "uint256",
                    "name": "amount",
                    "type": "uint256"
                }
            ],
            "name": "bridge",
            "outputs": [],
            "stateMutability": "payable",
            "type": "function"
        },
        {
            "inputs": [
                {
                    "internalType": "uint32",
                    "name": "nonce",
                    "type": "uint32"
                },
                {
                    "internalType": "bytes",
                    "name": "payload",
                    "type": "bytes"
                }
            ],
            "name": "receiveMessage",
            "outputs": [],
            "stateMutability": "nonpayable",
            "type": "function"
        }
    ],
    "bytecode": "0x608060405260c8600760006101000a81548160ff021916908360ff1602179055503480156200002d57600080fd5b50604051620017d9380380620017d9833981810160405281019062000053919062000104565b806000806101000a81548173ffffffffffffffffffffffffffffffffffffffff021916908373ffffffffffffffffffffffffffffffffffffffff1602179055505062000136565b600080fd5b600073ffffffffffffffffffffffffffffffffffffffff82169050919050565b6000620000cc826200009f565b9050919050565b620000de81620000bf565b8114620000ea57600080fd5b50565b600081519050620000fe81620000d3565b92915050565b6000602082840312156200011d576200011c6200009a565b5b60006200012d84828501620000ed565b91505092915050565b61169380620001466000396000f3fe6080604052600436106100595760003560e01c80631a90a219146100655780631d6476051461009057806347510765146100b95780637b56c2b2146100f6578063c3de453d1461011f578063fb9a98d61461013b57610060565b3661006057005b600080fd5b34801561007157600080fd5b5061007a610164565b6040516100879190610bc9565b60405180910390f35b34801561009c57600080fd5b506100b760048036038101906100b29190610c2e565b6101fb565b005b3480156100c557600080fd5b506100e060048036038101906100db9190610cb9565b610400565b6040516100ed9190610cf5565b60405180910390f35b34801561010257600080fd5b5061011d60048036038101906101189190610d3c565b610449565b005b61013960048036038101906101349190610d3c565b610518565b005b34801561014757600080fd5b50610162600480360381019061015d9190610efe565b61086c565b005b60008060009054906101000a900473ffffffffffffffffffffffffffffffffffffffff1673ffffffffffffffffffffffffffffffffffffffff16631a90a2196040518163ffffffff1660e01b8152600401602060405180830381865afa1580156101d2573d6000803e3d6000fd5b505050506040513d601f19601f820116820180604052508101906101f69190610f6f565b905090565b6000610205610b78565b90506000801b600360008373ffffffffffffffffffffffffffffffffffffffff1673ffffffffffffffffffffffffffffffffffffffff168152602001908152602001600020541461028b576040517f08c379a000000000000000000000000000000000000000000000000000000000815260040161028290610ff9565b60405180910390fd5b600073ffffffffffffffffffffffffffffffffffffffff166002600084815260200190815260200160002060009054906101000a900473ffffffffffffffffffffffffffffffffffffffff1673ffffffffffffffffffffffffffffffffffffffff161461032d576040517f08c379a000000000000000000000000000000000000000000000000000000000815260040161032490611065565b60405180910390fd5b81600360008373ffffffffffffffffffffffffffffffffffffffff1673ffffffffffffffffffffffffffffffffffffffff16815260200190815260200160002081905550806002600084815260200190815260200160002060006101000a81548173ffffffffffffffffffffffffffffffffffffffff021916908373ffffffffffffffffffffffffffffffffffffffff1602179055507fc71ce9687e4bf252667e23b2b1cb9433c5357a590c7f9ff6db754257a0be60c181836040516103f4929190611094565b60405180910390a15050565b6000600360008373ffffffffffffffffffffffffffffffffffffffff1673ffffffffffffffffffffffffffffffffffffffff168152602001908152602001600020549050919050565b6000610453610b78565b905060008390508073ffffffffffffffffffffffffffffffffffffffff1663a9059cbb83856040518363ffffffff1660e01b81526004016104959291906110bd565b6020604051808303816000875af11580156104b4573d6000803e3d6000fd5b505050506040513d601f19601f820116820180604052508101906104d8919061111e565b507f4ccc2cb57d301275bff907df4fcc7431ca6cef9083f95cdc1098086c2360e29a828460405161050a9291906110bd565b60405180910390a150505050565b6000610522610b78565b90506000801b600360008373ffffffffffffffffffffffffffffffffffffffff1673ffffffffffffffffffffffffffffffffffffffff16815260200190815260200160002054036105a8576040517f08c379a000000000000000000000000000000000000000000000000000000000815260040161059f90611197565b60405180910390fd5b60008390508073ffffffffffffffffffffffffffffffffffffffff166323b872dd8330866040518463ffffffff1660e01b81526004016105ea939291906111b7565b6020604051808303816000875af1158015610609573d6000803e3d6000fd5b505050506040513d601f19601f8201168201806040525081019061062d919061111e565b506000600560008673ffffffffffffffffffffffffffffffffffffffff1673ffffffffffffffffffffffffffffffffffffffff1681526020019081526020016000205461067985610b80565b600360008673ffffffffffffffffffffffffffffffffffffffff1673ffffffffffffffffffffffffffffffffffffffff168152602001908152602001600020546040516020016106cb939291906111ee565b604051602081830303815290604052905060008054906101000a900473ffffffffffffffffffffffffffffffffffffffff1673ffffffffffffffffffffffffffffffffffffffff1663b19a437e610720610164565b600060149054906101000a900463ffffffff1684600760009054906101000a900460ff166040518563ffffffff1660e01b8152600401610762939291906112cf565b60206040518083038185885af1158015610780573d6000803e3d6000fd5b50505050506040513d601f19601f820116820180604052508101906107a5919061134d565b506000601481819054906101000a900463ffffffff16809291906107c8906113a9565b91906101000a81548163ffffffff021916908363ffffffff160217905550507f50dd57836bf1f1b3e2da99474d9523be203f9f123be6eff189f0b264d740835b858585600360008873ffffffffffffffffffffffffffffffffffffffff1673ffffffffffffffffffffffffffffffffffffffff168152602001908152602001600020544260405161085d9594939291906113d5565b60405180910390a15050505050565b600160008363ffffffff1663ffffffff16815260200190815260200160002060009054906101000a900460ff16156108d9576040517f08c379a00000000000000000000000000000000000000000000000000000000081526004016108d090611474565b60405180910390fd5b60018060008463ffffffff1663ffffffff16815260200190815260200160002060006101000a81548160ff02191690831515021790555060008060008380602001905181019061092991906114a9565b925092509250600073ffffffffffffffffffffffffffffffffffffffff166002600083815260200190815260200160002060009054906101000a900473ffffffffffffffffffffffffffffffffffffffff1673ffffffffffffffffffffffffffffffffffffffff16036109d1576040517f08c379a00000000000000000000000000000000000000000000000000000000081526004016109c890611548565b60405180910390fd5b60006004600085815260200190815260200160002060009054906101000a900473ffffffffffffffffffffffffffffffffffffffff1690508073ffffffffffffffffffffffffffffffffffffffff1663a9059cbb6002600085815260200190815260200160002060009054906101000a900473ffffffffffffffffffffffffffffffffffffffff16610a6286610b98565b6040518363ffffffff1660e01b8152600401610a7f9291906110bd565b6020604051808303816000875af1158015610a9e573d6000803e3d6000fd5b505050506040513d601f19601f82011682018060405250810190610ac2919061111e565b507fec8e9e81edfaeb3df9cd313959f56708e48d0b705436cffec08fefb1d76acffe6004600086815260200190815260200160002060009054906101000a900473ffffffffffffffffffffffffffffffffffffffff16610b2185610b98565b846002600087815260200190815260200160002060009054906101000a900473ffffffffffffffffffffffffffffffffffffffff1642604051610b68959493929190611568565b60405180910390a1505050505050565b600033905090565b6000620f424082610b9191906115ea565b9050919050565b6000620f424082610ba9919061161b565b9050919050565b6000819050919050565b610bc381610bb0565b82525050565b6000602082019050610bde6000830184610bba565b92915050565b6000604051905090565b600080fd5b600080fd5b6000819050919050565b610c0b81610bf8565b8114610c1657600080fd5b50565b600081359050610c2881610c02565b92915050565b600060208284031215610c4457610c43610bee565b5b6000610c5284828501610c19565b91505092915050565b600073ffffffffffffffffffffffffffffffffffffffff82169050919050565b6000610c8682610c5b565b9050919050565b610c9681610c7b565b8114610ca157600080fd5b50565b600081359050610cb381610c8d565b92915050565b600060208284031215610ccf57610cce610bee565b5b6000610cdd84828501610ca4565b91505092915050565b610cef81610bf8565b82525050565b6000602082019050610d0a6000830184610ce6565b92915050565b610d1981610bb0565b8114610d2457600080fd5b50565b600081359050610d3681610d10565b92915050565b60008060408385031215610d5357610d52610bee565b5b6000610d6185828601610ca4565b9250506020610d7285828601610d27565b9150509250929050565b600063ffffffff82169050919050565b610d9581610d7c565b8114610da057600080fd5b50565b600081359050610db281610d8c565b92915050565b600080fd5b600080fd5b6000601f19601f8301169050919050565b7f4e487b7100000000000000000000000000000000000000000000000000000000600052604160045260246000fd5b610e0b82610dc2565b810181811067ffffffffffffffff82111715610e2a57610e29610dd3565b5b80604052505050565b6000610e3d610be4565b9050610e498282610e02565b919050565b600067ffffffffffffffff821115610e6957610e68610dd3565b5b610e7282610dc2565b9050602081019050919050565b82818337600083830152505050565b6000610ea1610e9c84610e4e565b610e33565b905082815260208101848484011115610ebd57610ebc610dbd565b5b610ec8848285610e7f565b509392505050565b600082601f830112610ee557610ee4610db8565b5b8135610ef5848260208601610e8e565b91505092915050565b60008060408385031215610f1557610f14610bee565b5b6000610f2385828601610da3565b925050602083013567ffffffffffffffff811115610f4457610f43610bf3565b5b610f5085828601610ed0565b9150509250929050565b600081519050610f6981610d10565b92915050565b600060208284031215610f8557610f84610bee565b5b6000610f9384828501610f5a565b91505092915050565b600082825260208201905092915050565b7f416c676f2077616c6c657420616c726561647920757365640000000000000000600082015250565b6000610fe3601883610f9c565b9150610fee82610fad565b602082019050919050565b6000602082019050818103600083015261101281610fd6565b9050919050565b7f45766d2077616c6c657420616c72656164792075736564000000000000000000600082015250565b600061104f601783610f9c565b915061105a82611019565b602082019050919050565b6000602082019050818103600083015261107e81611042565b9050919050565b61108e81610c7b565b82525050565b60006040820190506110a96000830185611085565b6110b66020830184610ce6565b9392505050565b60006040820190506110d26000830185611085565b6110df6020830184610bba565b9392505050565b60008115159050919050565b6110fb816110e6565b811461110657600080fd5b50565b600081519050611118816110f2565b92915050565b60006020828403121561113457611133610bee565b5b600061114284828501611109565b91505092915050565b7f416c676f2061646472657373206e6f7420736574000000000000000000000000600082015250565b6000611181601483610f9c565b915061118c8261114b565b602082019050919050565b600060208201905081810360008301526111b081611174565b9050919050565b60006060820190506111cc6000830186611085565b6111d96020830185611085565b6111e66040830184610bba565b949350505050565b60006060820190506112036000830186610bba565b6112106020830185610bba565b61121d6040830184610ce6565b949350505050565b61122e81610d7c565b82525050565b600081519050919050565b600082825260208201905092915050565b60005b8381101561126e578082015181840152602081019050611253565b60008484015250505050565b600061128582611234565b61128f818561123f565b935061129f818560208601611250565b6112a881610dc2565b840191505092915050565b600060ff82169050919050565b6112c9816112b3565b82525050565b60006060820190506112e46000830186611225565b81810360208301526112f6818561127a565b905061130560408301846112c0565b949350505050565b600067ffffffffffffffff82169050919050565b61132a8161130d565b811461133557600080fd5b50565b60008151905061134781611321565b92915050565b60006020828403121561136357611362610bee565b5b600061137184828501611338565b91505092915050565b7f4e487b7100000000000000000000000000000000000000000000000000000000600052601160045260246000fd5b60006113b482610d7c565b915063ffffffff82036113ca576113c961137a565b5b600182019050919050565b600060a0820190506113ea6000830188611085565b6113f76020830187610bba565b6114046040830186611085565b6114116060830185610ce6565b61141e6080830184610bba565b9695505050505050565b7f4d65737361676520616c72656164792070726f63657373656400000000000000600082015250565b600061145e601983610f9c565b915061146982611428565b602082019050919050565b6000602082019050818103600083015261148d81611451565b9050919050565b6000815190506114a381610c02565b92915050565b6000806000606084860312156114c2576114c1610bee565b5b60006114d086828701610f5a565b93505060206114e186828701610f5a565b92505060406114f286828701611494565b9150509250925092565b7f45766d2061646472657373206e6f742073657400000000000000000000000000600082015250565b6000611532601383610f9c565b915061153d826114fc565b602082019050919050565b6000602082019050818103600083015261156181611525565b9050919050565b600060a08201905061157d6000830188611085565b61158a6020830187610bba565b6115976040830186610ce6565b6115a46060830185611085565b6115b16080830184610bba565b9695505050505050565b7f4e487b7100000000000000000000000000000000000000000000000000000000600052601260045260246000fd5b60006115f582610bb0565b915061160083610bb0565b9250826116105761160f6115bb565b5b828204905092915050565b600061162682610bb0565b915061163183610bb0565b925082820261163f81610bb0565b915082820484148315176116565761165561137a565b5b509291505056fea2646970667358221220d77b1fbe2b11b4cd84f8b5bf2ce14a8b3b974a7bf1388a2ec31cd680e1bfb1f064736f6c63430008110033",
    "immutableReferences": {},
    "source": "// SPDX-License-Identifier: MIT\r\npragma solidity ^0.8.17;\r\n\r\nimport \"./interfaces/IWormhole.sol\";\r\n\r\nimport \"./interfaces/IERC3643.sol\";\r\nimport \"@openzeppelin/contracts/utils/Context.sol\";\r\n\r\ncontract Tunnel is Context {\r\n    IWormhole private _wormhole;\r\n\r\n    uint32 private _nonce;\r\n\r\n    mapping(uint32 => bool) private _delivered;\r\n\r\n    mapping(bytes32 => address) private _evmWallet;\r\n    mapping(address => bytes32) private _algoWallet;\r\n\r\n    mapping(uint256 => address) private _evmAsset;\r\n    mapping(address => uint256) private _algoAsset;\r\n\r\n    uint256 private GAS_LIMIT;\r\n    uint8 private CONSISTENCY_LEVEL = 200;\r\n\r\n    event AssetLocked(\r\n        address assetId,\r\n        uint256 amount,\r\n        address evmWallet,\r\n        bytes32 algoWallet,\r\n        uint256 timestamp\r\n    );\r\n\r\n    event AssetReleased(\r\n        address assetId,\r\n        uint256 amount,\r\n        bytes32 algoWallet,\r\n        address evmWallet,\r\n        uint256 timestamp\r\n    );\r\n\r\n    event WalletCreated(address evmWallet, bytes32 algoWallet);\r\n\r\n    event FaucetDispensed(address evmWallet, uint256 amount);\r\n\r\n    constructor(address wormhole_) {\r\n        _wormhole = IWormhole(wormhole_);\r\n    }\r\n\r\n    function faucet(address assetId, uint256 amount) external {\r\n        address evmWallet = _msgSender();\r\n\r\n        IERC3643 asset = IERC3643(assetId);\r\n        asset.transfer(evmWallet, amount);\r\n\r\n        emit FaucetDispensed(evmWallet, amount);\r\n    }\r\n\r\n    function createWallet(bytes32 algoWallet) external {\r\n        address evmWallet = _msgSender();\r\n\r\n        require(\r\n            _algoWallet[evmWallet] == bytes32(0),\r\n            \"Algo wallet already used\"\r\n        );\r\n\r\n        require(\r\n            _evmWallet[algoWallet] == address(0),\r\n            \"Evm wallet already used\"\r\n        );\r\n\r\n        _algoWallet[evmWallet] = algoWallet;\r\n        _evmWallet[algoWallet] = evmWallet;\r\n\r\n        emit WalletCreated(evmWallet, algoWallet);\r\n    }\r\n\r\n    function getAlgoWallet(address evmWallet) external view returns (bytes32) {\r\n        return _algoWallet[evmWallet];\r\n    }\r\n\r\n    /// @dev For getting briging fee\r\n    function messageFee() public view returns (uint256) {\r\n        return _wormhole.messageFee();\r\n    }\r\n\r\n    /// @dev This function locks the Original NFT\r\n    /// and tell whirlExtension Contract to mint a new similar NFT\r\n    function bridge(address assetId, uint256 amount) external payable {\r\n        address evmWallet = _msgSender();\r\n\r\n        require(_algoWallet[evmWallet] != bytes32(0), \"Algo address not set\");\r\n\r\n        IERC3643 asset = IERC3643(assetId);\r\n        asset.transferFrom(evmWallet, address(this), amount);\r\n\r\n        bytes memory payload = abi.encode(\r\n            _algoAsset[assetId],\r\n            _algoAmount(amount),\r\n            _algoWallet[evmWallet]\r\n        );\r\n\r\n        _wormhole.publishMessage{value: messageFee()}(\r\n            _nonce,\r\n            payload,\r\n            CONSISTENCY_LEVEL\r\n        );\r\n\r\n        _nonce++;\r\n\r\n        emit AssetLocked(\r\n            assetId,\r\n            amount,\r\n            evmWallet,\r\n            _algoWallet[evmWallet],\r\n            block.timestamp\r\n        );\r\n    }\r\n\r\n    // @dev This function unlocks the Original asset to the\r\n    function receiveMessage(uint32 nonce, bytes memory payload) external {\r\n        // Ensure no duplicate deliveries\r\n        require(!_delivered[nonce], \"Message already processed\");\r\n        _delivered[nonce] = true;\r\n\r\n        // Parse the payload and do the corresponding actions!\r\n        (uint256 assetId, uint256 amount, bytes32 algoWallet) = abi.decode(\r\n            payload,\r\n            (uint256, uint256, bytes32)\r\n        );\r\n\r\n        require(_evmWallet[algoWallet] != address(0), \"Evm address not set\");\r\n\r\n        IERC3643 asset = IERC3643(_evmAsset[assetId]);\r\n        asset.transfer(_evmWallet[algoWallet], _evmAmount(amount));\r\n\r\n        emit AssetReleased(\r\n            _evmAsset[assetId],\r\n            _evmAmount(amount),\r\n            algoWallet,\r\n            _evmWallet[algoWallet],\r\n            block.timestamp\r\n        );\r\n    }\r\n\r\n    function _evmAmount(uint256 algoAmmount) private pure returns (uint256) {\r\n        return algoAmmount * 1_000_000;\r\n    }\r\n\r\n    function _algoAmount(uint256 evmAmount) private pure returns (uint256) {\r\n        return evmAmount / 1_000_000;\r\n    }\r\n\r\n    receive() external payable {}\r\n}\r\n",
    "sourcePath": "C:\\Users\\DELL\\Documents\\tunnel\\solidity\\contracts\\Tunnel.sol",
    "compiler": {
        "name": "solc",
        "version": "0.8.17+commit.8df45f5f.Emscripten.clang"
    },
    "schemaVersion": "3.4.11",
    "updatedAt": "2023-11-04T16:24:24.397Z",
    "devdoc": {
        "kind": "dev",
        "methods": {
            "bridge(address,uint256)": {
                "details": "This function locks the Original NFT and tell whirlExtension Contract to mint a new similar NFT"
            },
            "messageFee()": {
                "details": "For getting briging fee"
            }
        },
        "version": 1
    },
    "userdoc": {
        "kind": "user",
        "methods": {},
        "version": 1
    }
}